{
  "_format": "hh-sol-artifact-1",
  "contractName": "FileSharing",
  "sourceName": "contracts/FileSharing.sol",
  "abi": [
    {
      "anonymous": false,
      "inputs": [
        {
          "indexed": true,
          "internalType": "address",
          "name": "owner",
          "type": "address"
        },
        {
          "indexed": false,
          "internalType": "string",
          "name": "fileHash",
          "type": "string"
        }
      ],
      "name": "FileDeleted",
      "type": "event"
    },
    {
      "anonymous": false,
      "inputs": [
        {
          "indexed": true,
          "internalType": "address",
          "name": "owner",
          "type": "address"
        },
        {
          "indexed": false,
          "internalType": "string",
          "name": "fileHash",
          "type": "string"
        },
        {
          "indexed": true,
          "internalType": "address",
          "name": "recipient",
          "type": "address"
        }
      ],
      "name": "FileShared",
      "type": "event"
    },
    {
      "anonymous": false,
      "inputs": [
        {
          "indexed": true,
          "internalType": "address",
          "name": "owner",
          "type": "address"
        },
        {
          "indexed": false,
          "internalType": "string",
          "name": "fileHash",
          "type": "string"
        },
        {
          "indexed": false,
          "internalType": "string",
          "name": "fileName",
          "type": "string"
        }
      ],
      "name": "FileUploaded",
      "type": "event"
    },
    {
      "inputs": [
        {
          "internalType": "string",
          "name": "fileName",
          "type": "string"
        },
        {
          "internalType": "uint256",
          "name": "version",
          "type": "uint256"
        }
      ],
      "name": "deleteFile",
      "outputs": [],
      "stateMutability": "nonpayable",
      "type": "function"
    },
    {
      "inputs": [
        {
          "internalType": "address",
          "name": "user",
          "type": "address"
        }
      ],
      "name": "getSharedFiles",
      "outputs": [
        {
          "components": [
            {
              "internalType": "string",
              "name": "fileName",
              "type": "string"
            },
            {
              "internalType": "string",
              "name": "fileHash",
              "type": "string"
            },
            {
              "internalType": "string",
              "name": "description",
              "type": "string"
            },
            {
              "internalType": "uint256",
              "name": "version",
              "type": "uint256"
            },
            {
              "internalType": "address",
              "name": "owner",
              "type": "address"
            },
            {
              "internalType": "bool",
              "name": "isDeleted",
              "type": "bool"
            },
            {
              "internalType": "address[]",
              "name": "sharedWith",
              "type": "address[]"
            }
          ],
          "internalType": "struct FileSharing.File[]",
          "name": "",
          "type": "tuple[]"
        }
      ],
      "stateMutability": "view",
      "type": "function"
    },
    {
      "inputs": [
        {
          "internalType": "address",
          "name": "user",
          "type": "address"
        }
      ],
      "name": "getUserFiles",
      "outputs": [
        {
          "components": [
            {
              "internalType": "string",
              "name": "fileName",
              "type": "string"
            },
            {
              "internalType": "string",
              "name": "fileHash",
              "type": "string"
            },
            {
              "internalType": "string",
              "name": "description",
              "type": "string"
            },
            {
              "internalType": "uint256",
              "name": "version",
              "type": "uint256"
            },
            {
              "internalType": "address",
              "name": "owner",
              "type": "address"
            },
            {
              "internalType": "bool",
              "name": "isDeleted",
              "type": "bool"
            },
            {
              "internalType": "address[]",
              "name": "sharedWith",
              "type": "address[]"
            }
          ],
          "internalType": "struct FileSharing.File[]",
          "name": "",
          "type": "tuple[]"
        }
      ],
      "stateMutability": "view",
      "type": "function"
    },
    {
      "inputs": [
        {
          "internalType": "string",
          "name": "fileHash",
          "type": "string"
        },
        {
          "internalType": "address",
          "name": "user",
          "type": "address"
        }
      ],
      "name": "isFileSharedWith",
      "outputs": [
        {
          "internalType": "bool",
          "name": "",
          "type": "bool"
        }
      ],
      "stateMutability": "view",
      "type": "function"
    },
    {
      "inputs": [
        {
          "internalType": "address",
          "name": "",
          "type": "address"
        }
      ],
      "name": "isRegistered",
      "outputs": [
        {
          "internalType": "bool",
          "name": "",
          "type": "bool"
        }
      ],
      "stateMutability": "pure",
      "type": "function"
    },
    {
      "inputs": [
        {
          "internalType": "string",
          "name": "fileHash",
          "type": "string"
        },
        {
          "internalType": "address",
          "name": "recipient",
          "type": "address"
        }
      ],
      "name": "shareFile",
      "outputs": [],
      "stateMutability": "nonpayable",
      "type": "function"
    },
    {
      "inputs": [
        {
          "internalType": "string",
          "name": "fileHash",
          "type": "string"
        },
        {
          "internalType": "string",
          "name": "fileName",
          "type": "string"
        },
        {
          "internalType": "string",
          "name": "description",
          "type": "string"
        }
      ],
      "name": "uploadFile",
      "outputs": [],
      "stateMutability": "nonpayable",
      "type": "function"
    }
  ],
  "bytecode": "0x608060405234801561001057600080fd5b50612d86806100206000396000f3fe608060405234801561001057600080fd5b506004361061007d5760003560e01c806392bb481a1161005b57806392bb481a14610112578063c3c5a5471461012e578063d5c37a0c1461015e578063ebceb82c1461017a5761007d565b80631d152422146100825780631fc37922146100b2578063392101b1146100e2575b600080fd5b61009c60048036038101906100979190611eba565b610196565b6040516100a991906121dc565b60405180910390f35b6100cc60048036038101906100c79190611eba565b610a01565b6040516100d991906121dc565b60405180910390f35b6100fc60048036038101906100f79190612333565b610fba565b604051610109919061239e565b60405180910390f35b61012c600480360381019061012791906123b9565b6112fa565b005b61014860048036038101906101439190611eba565b61157a565b604051610155919061239e565b60405180910390f35b6101786004803603810190610173919061248c565b611585565b005b610194600480360381019061018f9190612333565b6118ba565b005b60606101a13361157a565b6101e0576040517f08c379a00000000000000000000000000000000000000000000000000000000081526004016101d790612545565b60405180910390fd5b6000805b6000803373ffffffffffffffffffffffffffffffffffffffff1673ffffffffffffffffffffffffffffffffffffffff1681526020019081526020016000208054905081101561041b5760005b6000803373ffffffffffffffffffffffffffffffffffffffff1673ffffffffffffffffffffffffffffffffffffffff16815260200190815260200160002082815481106102805761027f612565565b5b906000526020600020906006020160050180549050811015610407578473ffffffffffffffffffffffffffffffffffffffff166000803373ffffffffffffffffffffffffffffffffffffffff1673ffffffffffffffffffffffffffffffffffffffff168152602001908152602001600020838154811061030357610302612565565b5b9060005260206000209060060201600501828154811061032657610325612565565b5b9060005260206000200160009054906101000a900473ffffffffffffffffffffffffffffffffffffffff1673ffffffffffffffffffffffffffffffffffffffff161480156103e057506000803373ffffffffffffffffffffffffffffffffffffffff1673ffffffffffffffffffffffffffffffffffffffff16815260200190815260200160002082815481106103bf576103be612565565b5b906000526020600020906006020160040160149054906101000a900460ff16155b156103f45782806103f0906125c3565b9350505b80806103ff906125c3565b915050610230565b508080610413906125c3565b9150506101e4565b5060008167ffffffffffffffff81111561043857610437612208565b5b60405190808252806020026020018201604052801561047157816020015b61045e611df3565b8152602001906001900390816104565790505b5090506000805b6000803373ffffffffffffffffffffffffffffffffffffffff1673ffffffffffffffffffffffffffffffffffffffff168152602001908152602001600020805490508110156109f55760005b6000803373ffffffffffffffffffffffffffffffffffffffff1673ffffffffffffffffffffffffffffffffffffffff168152602001908152602001600020828154811061051457610513612565565b5b9060005260206000209060060201600501805490508110156109e1578673ffffffffffffffffffffffffffffffffffffffff166000803373ffffffffffffffffffffffffffffffffffffffff1673ffffffffffffffffffffffffffffffffffffffff168152602001908152602001600020838154811061059757610596612565565b5b906000526020600020906006020160050182815481106105ba576105b9612565565b5b9060005260206000200160009054906101000a900473ffffffffffffffffffffffffffffffffffffffff1673ffffffffffffffffffffffffffffffffffffffff1614801561067457506000803373ffffffffffffffffffffffffffffffffffffffff1673ffffffffffffffffffffffffffffffffffffffff168152602001908152602001600020828154811061065357610652612565565b5b906000526020600020906006020160040160149054906101000a900460ff16155b156109ce576000803373ffffffffffffffffffffffffffffffffffffffff1673ffffffffffffffffffffffffffffffffffffffff16815260200190815260200160002082815481106106c9576106c8612565565b5b90600052602060002090600602016040518060e00160405290816000820180546106f29061263a565b80601f016020809104026020016040519081016040528092919081815260200182805461071e9061263a565b801561076b5780601f106107405761010080835404028352916020019161076b565b820191906000526020600020905b81548152906001019060200180831161074e57829003601f168201915b505050505081526020016001820180546107849061263a565b80601f01602080910402602001604051908101604052809291908181526020018280546107b09061263a565b80156107fd5780601f106107d2576101008083540402835291602001916107fd565b820191906000526020600020905b8154815290600101906020018083116107e057829003601f168201915b505050505081526020016002820180546108169061263a565b80601f01602080910402602001604051908101604052809291908181526020018280546108429061263a565b801561088f5780601f106108645761010080835404028352916020019161088f565b820191906000526020600020905b81548152906001019060200180831161087257829003601f168201915b50505050508152602001600382015481526020016004820160009054906101000a900473ffffffffffffffffffffffffffffffffffffffff1673ffffffffffffffffffffffffffffffffffffffff1673ffffffffffffffffffffffffffffffffffffffff1681526020016004820160149054906101000a900460ff161515151581526020016005820180548060200260200160405190810160405280929190818152602001828054801561099857602002820191906000526020600020905b8160009054906101000a900473ffffffffffffffffffffffffffffffffffffffff1673ffffffffffffffffffffffffffffffffffffffff168152602001906001019080831161094e575b5050505050815250508484815181106109b4576109b3612565565b5b602002602001018190525082806109ca906125c3565b9350505b80806109d9906125c3565b9150506104c4565b5080806109ed906125c3565b915050610478565b50819350505050919050565b6060610a0c3361157a565b610a4b576040517f08c379a0000000000000000000000000000000000000000000000000000000008152600401610a4290612545565b60405180910390fd5b6000805b6000808573ffffffffffffffffffffffffffffffffffffffff1673ffffffffffffffffffffffffffffffffffffffff16815260200190815260200160002080549050811015610b2d576000808573ffffffffffffffffffffffffffffffffffffffff1673ffffffffffffffffffffffffffffffffffffffff1681526020019081526020016000208181548110610ae857610ae7612565565b5b906000526020600020906006020160040160149054906101000a900460ff16610b1a578180610b16906125c3565b9250505b8080610b25906125c3565b915050610a4f565b5060008167ffffffffffffffff811115610b4a57610b49612208565b5b604051908082528060200260200182016040528015610b8357816020015b610b70611df3565b815260200190600190039081610b685790505b5090506000805b6000808773ffffffffffffffffffffffffffffffffffffffff1673ffffffffffffffffffffffffffffffffffffffff16815260200190815260200160002080549050811015610fae576000808773ffffffffffffffffffffffffffffffffffffffff1673ffffffffffffffffffffffffffffffffffffffff1681526020019081526020016000208181548110610c2357610c22612565565b5b906000526020600020906006020160040160149054906101000a900460ff16610f9b576000808773ffffffffffffffffffffffffffffffffffffffff1673ffffffffffffffffffffffffffffffffffffffff1681526020019081526020016000208181548110610c9657610c95612565565b5b90600052602060002090600602016040518060e0016040529081600082018054610cbf9061263a565b80601f0160208091040260200160405190810160405280929190818152602001828054610ceb9061263a565b8015610d385780601f10610d0d57610100808354040283529160200191610d38565b820191906000526020600020905b815481529060010190602001808311610d1b57829003601f168201915b50505050508152602001600182018054610d519061263a565b80601f0160208091040260200160405190810160405280929190818152602001828054610d7d9061263a565b8015610dca5780601f10610d9f57610100808354040283529160200191610dca565b820191906000526020600020905b815481529060010190602001808311610dad57829003601f168201915b50505050508152602001600282018054610de39061263a565b80601f0160208091040260200160405190810160405280929190818152602001828054610e0f9061263a565b8015610e5c5780601f10610e3157610100808354040283529160200191610e5c565b820191906000526020600020905b815481529060010190602001808311610e3f57829003601f168201915b50505050508152602001600382015481526020016004820160009054906101000a900473ffffffffffffffffffffffffffffffffffffffff1673ffffffffffffffffffffffffffffffffffffffff1673ffffffffffffffffffffffffffffffffffffffff1681526020016004820160149054906101000a900460ff1615151515815260200160058201805480602002602001604051908101604052809291908181526020018280548015610f6557602002820191906000526020600020905b8160009054906101000a900473ffffffffffffffffffffffffffffffffffffffff1673ffffffffffffffffffffffffffffffffffffffff1681526020019060010190808311610f1b575b505050505081525050838381518110610f8157610f80612565565b5b60200260200101819052508180610f97906125c3565b9250505b8080610fa6906125c3565b915050610b8a565b50819350505050919050565b6000610fc53361157a565b611004576040517f08c379a0000000000000000000000000000000000000000000000000000000008152600401610ffb90612545565b60405180910390fd5b60005b6000803373ffffffffffffffffffffffffffffffffffffffff1673ffffffffffffffffffffffffffffffffffffffff168152602001908152602001600020805490508110156112ee578360405160200161106191906126a7565b604051602081830303815290604052805190602001206000803373ffffffffffffffffffffffffffffffffffffffff1673ffffffffffffffffffffffffffffffffffffffff16815260200190815260200160002082815481106110c7576110c6612565565b5b90600052602060002090600602016001016040516020016110e89190612756565b6040516020818303038152906040528051906020012014801561117757506000803373ffffffffffffffffffffffffffffffffffffffff1673ffffffffffffffffffffffffffffffffffffffff168152602001908152602001600020818154811061115657611155612565565b5b906000526020600020906006020160040160149054906101000a900460ff16155b156112db5760005b6000803373ffffffffffffffffffffffffffffffffffffffff1673ffffffffffffffffffffffffffffffffffffffff16815260200190815260200160002082815481106111cf576111ce612565565b5b9060005260206000209060060201600501805490508110156112d9578373ffffffffffffffffffffffffffffffffffffffff166000803373ffffffffffffffffffffffffffffffffffffffff1673ffffffffffffffffffffffffffffffffffffffff168152602001908152602001600020838154811061125257611251612565565b5b9060005260206000209060060201600501828154811061127557611274612565565b5b9060005260206000200160009054906101000a900473ffffffffffffffffffffffffffffffffffffffff1673ffffffffffffffffffffffffffffffffffffffff16036112c6576001925050506112f4565b80806112d1906125c3565b91505061117f565b505b80806112e6906125c3565b915050611007565b50600090505b92915050565b6113033361157a565b611342576040517f08c379a000000000000000000000000000000000000000000000000000000000815260040161133990612545565b60405180910390fd5b60018360405161135291906126a7565b908152602001604051809103902060009054906101000a900460ff16156113ae576040517f08c379a00000000000000000000000000000000000000000000000000000000081526004016113a5906127b9565b60405180910390fd5b60008060003373ffffffffffffffffffffffffffffffffffffffff1673ffffffffffffffffffffffffffffffffffffffff16815260200190815260200160002060018160018154018082558091505003906000526020600020906006020190508281600001908161141f9190612970565b50838160010190816114319190612970565b50818160020190816114439190612970565b506000803373ffffffffffffffffffffffffffffffffffffffff1673ffffffffffffffffffffffffffffffffffffffff168152602001908152602001600020805490508160030181905550338160040160006101000a81548173ffffffffffffffffffffffffffffffffffffffff021916908373ffffffffffffffffffffffffffffffffffffffff16021790555060008160040160146101000a81548160ff021916908315150217905550600180856040516114ff91906126a7565b908152602001604051809103902060006101000a81548160ff0219169083151502179055503373ffffffffffffffffffffffffffffffffffffffff167f2f82310531f67ec4eae39b4f0d4e2ea9a5e6da4bb8f084adb414ec441b761c5d858560405161156c929190612a7b565b60405180910390a250505050565b600060019050919050565b61158e3361157a565b6115cd576040517f08c379a00000000000000000000000000000000000000000000000000000000081526004016115c490612545565b60405180910390fd5b60005b6000803373ffffffffffffffffffffffffffffffffffffffff1673ffffffffffffffffffffffffffffffffffffffff1681526020019081526020016000208054905081101561187a578260405160200161162a91906126a7565b604051602081830303815290604052805190602001206000803373ffffffffffffffffffffffffffffffffffffffff1673ffffffffffffffffffffffffffffffffffffffff16815260200190815260200160002082815481106116905761168f612565565b5b90600052602060002090600602016000016040516020016116b19190612756565b604051602081830303815290604052805190602001201480156117345750816000803373ffffffffffffffffffffffffffffffffffffffff1673ffffffffffffffffffffffffffffffffffffffff16815260200190815260200160002082815481106117205761171f612565565b5b906000526020600020906006020160030154145b156118675760016000803373ffffffffffffffffffffffffffffffffffffffff1673ffffffffffffffffffffffffffffffffffffffff168152602001908152602001600020828154811061178b5761178a612565565b5b906000526020600020906006020160040160146101000a81548160ff0219169083151502179055503373ffffffffffffffffffffffffffffffffffffffff167f14a51c77a00d5c4c3ccc7a4df74f169088c4d4d04859d176729645e53c7b895c6000803373ffffffffffffffffffffffffffffffffffffffff1673ffffffffffffffffffffffffffffffffffffffff168152602001908152602001600020838154811061183b5761183a612565565b5b90600052602060002090600602016001016040516118599190612b36565b60405180910390a2506118b6565b8080611872906125c3565b9150506115d0565b506040517f08c379a00000000000000000000000000000000000000000000000000000000081526004016118ad90612ba4565b60405180910390fd5b5050565b6118c33361157a565b611902576040517f08c379a00000000000000000000000000000000000000000000000000000000081526004016118f990612545565b60405180910390fd5b60018260405161191291906126a7565b908152602001604051809103902060009054906101000a900460ff1661196d576040517f08c379a000000000000000000000000000000000000000000000000000000000815260040161196490612c10565b60405180910390fd5b60005b6000803373ffffffffffffffffffffffffffffffffffffffff1673ffffffffffffffffffffffffffffffffffffffff16815260200190815260200160002080549050811015611db357826040516020016119ca91906126a7565b604051602081830303815290604052805190602001206000803373ffffffffffffffffffffffffffffffffffffffff1673ffffffffffffffffffffffffffffffffffffffff1681526020019081526020016000208281548110611a3057611a2f612565565b5b9060005260206000209060060201600101604051602001611a519190612756565b60405160208183030381529060405280519060200120148015611ae057506000803373ffffffffffffffffffffffffffffffffffffffff1673ffffffffffffffffffffffffffffffffffffffff1681526020019081526020016000208181548110611abf57611abe612565565b5b906000526020600020906006020160040160149054906101000a900460ff16155b15611da05760005b6000803373ffffffffffffffffffffffffffffffffffffffff1673ffffffffffffffffffffffffffffffffffffffff1681526020019081526020016000208281548110611b3857611b37612565565b5b906000526020600020906006020160050180549050811015611c72578273ffffffffffffffffffffffffffffffffffffffff166000803373ffffffffffffffffffffffffffffffffffffffff1673ffffffffffffffffffffffffffffffffffffffff1681526020019081526020016000208381548110611bbb57611bba612565565b5b90600052602060002090600602016005018281548110611bde57611bdd612565565b5b9060005260206000200160009054906101000a900473ffffffffffffffffffffffffffffffffffffffff1673ffffffffffffffffffffffffffffffffffffffff1603611c5f576040517f08c379a0000000000000000000000000000000000000000000000000000000008152600401611c5690612ca2565b60405180910390fd5b8080611c6a906125c3565b915050611ae8565b506000803373ffffffffffffffffffffffffffffffffffffffff1673ffffffffffffffffffffffffffffffffffffffff1681526020019081526020016000208181548110611cc357611cc2612565565b5b9060005260206000209060060201600501829080600181540180825580915050600190039060005260206000200160009091909190916101000a81548173ffffffffffffffffffffffffffffffffffffffff021916908373ffffffffffffffffffffffffffffffffffffffff1602179055508173ffffffffffffffffffffffffffffffffffffffff163373ffffffffffffffffffffffffffffffffffffffff167fde36542b2cce57cd64b09c2d42bb777fd32de9f0fe0c30c4f7b5516d87632a6585604051611d929190612cc2565b60405180910390a350611def565b8080611dab906125c3565b915050611970565b506040517f08c379a0000000000000000000000000000000000000000000000000000000008152600401611de690612d30565b60405180910390fd5b5050565b6040518060e0016040528060608152602001606081526020016060815260200160008152602001600073ffffffffffffffffffffffffffffffffffffffff168152602001600015158152602001606081525090565b6000604051905090565b600080fd5b600080fd5b600073ffffffffffffffffffffffffffffffffffffffff82169050919050565b6000611e8782611e5c565b9050919050565b611e9781611e7c565b8114611ea257600080fd5b50565b600081359050611eb481611e8e565b92915050565b600060208284031215611ed057611ecf611e52565b5b6000611ede84828501611ea5565b91505092915050565b600081519050919050565b600082825260208201905092915050565b6000819050602082019050919050565b600081519050919050565b600082825260208201905092915050565b60005b83811015611f4d578082015181840152602081019050611f32565b60008484015250505050565b6000601f19601f8301169050919050565b6000611f7582611f13565b611f7f8185611f1e565b9350611f8f818560208601611f2f565b611f9881611f59565b840191505092915050565b6000819050919050565b611fb681611fa3565b82525050565b611fc581611e7c565b82525050565b60008115159050919050565b611fe081611fcb565b82525050565b600081519050919050565b600082825260208201905092915050565b6000819050602082019050919050565b600061201e8383611fbc565b60208301905092915050565b6000602082019050919050565b600061204282611fe6565b61204c8185611ff1565b935061205783612002565b8060005b8381101561208857815161206f8882612012565b975061207a8361202a565b92505060018101905061205b565b5085935050505092915050565b600060e08301600083015184820360008601526120b28282611f6a565b915050602083015184820360208601526120cc8282611f6a565b915050604083015184820360408601526120e68282611f6a565b91505060608301516120fb6060860182611fad565b50608083015161210e6080860182611fbc565b5060a083015161212160a0860182611fd7565b5060c083015184820360c08601526121398282612037565b9150508091505092915050565b60006121528383612095565b905092915050565b6000602082019050919050565b600061217282611ee7565b61217c8185611ef2565b93508360208202850161218e85611f03565b8060005b858110156121ca57848403895281516121ab8582612146565b94506121b68361215a565b925060208a01995050600181019050612192565b50829750879550505050505092915050565b600060208201905081810360008301526121f68184612167565b905092915050565b600080fd5b600080fd5b7f4e487b7100000000000000000000000000000000000000000000000000000000600052604160045260246000fd5b61224082611f59565b810181811067ffffffffffffffff8211171561225f5761225e612208565b5b80604052505050565b6000612272611e48565b905061227e8282612237565b919050565b600067ffffffffffffffff82111561229e5761229d612208565b5b6122a782611f59565b9050602081019050919050565b82818337600083830152505050565b60006122d66122d184612283565b612268565b9050828152602081018484840111156122f2576122f1612203565b5b6122fd8482856122b4565b509392505050565b600082601f83011261231a576123196121fe565b5b813561232a8482602086016122c3565b91505092915050565b6000806040838503121561234a57612349611e52565b5b600083013567ffffffffffffffff81111561236857612367611e57565b5b61237485828601612305565b925050602061238585828601611ea5565b9150509250929050565b61239881611fcb565b82525050565b60006020820190506123b3600083018461238f565b92915050565b6000806000606084860312156123d2576123d1611e52565b5b600084013567ffffffffffffffff8111156123f0576123ef611e57565b5b6123fc86828701612305565b935050602084013567ffffffffffffffff81111561241d5761241c611e57565b5b61242986828701612305565b925050604084013567ffffffffffffffff81111561244a57612449611e57565b5b61245686828701612305565b9150509250925092565b61246981611fa3565b811461247457600080fd5b50565b60008135905061248681612460565b92915050565b600080604083850312156124a3576124a2611e52565b5b600083013567ffffffffffffffff8111156124c1576124c0611e57565b5b6124cd85828601612305565b92505060206124de85828601612477565b9150509250929050565b600082825260208201905092915050565b7f55736572206e6f74207265676973746572656400000000000000000000000000600082015250565b600061252f6013836124e8565b915061253a826124f9565b602082019050919050565b6000602082019050818103600083015261255e81612522565b9050919050565b7f4e487b7100000000000000000000000000000000000000000000000000000000600052603260045260246000fd5b7f4e487b7100000000000000000000000000000000000000000000000000000000600052601160045260246000fd5b60006125ce82611fa3565b91507fffffffffffffffffffffffffffffffffffffffffffffffffffffffffffffffff8203612600576125ff612594565b5b600182019050919050565b7f4e487b7100000000000000000000000000000000000000000000000000000000600052602260045260246000fd5b6000600282049050600182168061265257607f821691505b6020821081036126655761266461260b565b5b50919050565b600081905092915050565b600061268182611f13565b61268b818561266b565b935061269b818560208601611f2f565b80840191505092915050565b60006126b38284612676565b915081905092915050565b60008190508160005260206000209050919050565b600081546126e08161263a565b6126ea818661266b565b94506001821660008114612705576001811461271a5761274d565b60ff198316865281151582028601935061274d565b612723856126be565b60005b8381101561274557815481890152600182019150602081019050612726565b838801955050505b50505092915050565b600061276282846126d3565b915081905092915050565b7f46696c6520616c72656164792065786973747300000000000000000000000000600082015250565b60006127a36013836124e8565b91506127ae8261276d565b602082019050919050565b600060208201905081810360008301526127d281612796565b9050919050565b60006020601f8301049050919050565b600082821b905092915050565b6000600883026128267fffffffffffffffffffffffffffffffffffffffffffffffffffffffffffffffff826127e9565b61283086836127e9565b95508019841693508086168417925050509392505050565b6000819050919050565b600061286d61286861286384611fa3565b612848565b611fa3565b9050919050565b6000819050919050565b61288783612852565b61289b61289382612874565b8484546127f6565b825550505050565b600090565b6128b06128a3565b6128bb81848461287e565b505050565b5b818110156128df576128d46000826128a8565b6001810190506128c1565b5050565b601f821115612924576128f5816126be565b6128fe846127d9565b8101602085101561290d578190505b612921612919856127d9565b8301826128c0565b50505b505050565b600082821c905092915050565b600061294760001984600802612929565b1980831691505092915050565b60006129608383612936565b9150826002028217905092915050565b61297982611f13565b67ffffffffffffffff81111561299257612991612208565b5b61299c825461263a565b6129a78282856128e3565b600060209050601f8311600181146129da57600084156129c8578287015190505b6129d28582612954565b865550612a3a565b601f1984166129e8866126be565b60005b82811015612a10578489015182556001820191506020850194506020810190506129eb565b86831015612a2d5784890151612a29601f891682612936565b8355505b6001600288020188555050505b505050505050565b6000612a4d82611f13565b612a5781856124e8565b9350612a67818560208601611f2f565b612a7081611f59565b840191505092915050565b60006040820190508181036000830152612a958185612a42565b90508181036020830152612aa98184612a42565b90509392505050565b60008154612abf8161263a565b612ac981866124e8565b94506001821660008114612ae45760018114612afa57612b2d565b60ff198316865281151560200286019350612b2d565b612b03856126be565b60005b83811015612b2557815481890152600182019150602081019050612b06565b808801955050505b50505092915050565b60006020820190508181036000830152612b508184612ab2565b905092915050565b7f46696c65206e6f7420666f756e64000000000000000000000000000000000000600082015250565b6000612b8e600e836124e8565b9150612b9982612b58565b602082019050919050565b60006020820190508181036000830152612bbd81612b81565b9050919050565b7f46696c6520646f6573206e6f7420657869737400000000000000000000000000600082015250565b6000612bfa6013836124e8565b9150612c0582612bc4565b602082019050919050565b60006020820190508181036000830152612c2981612bed565b9050919050565b7f46696c6520616c7265616479207368617265642077697468207468697320616460008201527f6472657373000000000000000000000000000000000000000000000000000000602082015250565b6000612c8c6025836124e8565b9150612c9782612c30565b604082019050919050565b60006020820190508181036000830152612cbb81612c7f565b9050919050565b60006020820190508181036000830152612cdc8184612a42565b905092915050565b7f46696c65206e6f7420666f756e64206f722064656c6574656400000000000000600082015250565b6000612d1a6019836124e8565b9150612d2582612ce4565b602082019050919050565b60006020820190508181036000830152612d4981612d0d565b905091905056fea264697066735822122099841b558e660094330f96032cadd4301c76b68619ff719367c1d28d26ece91064736f6c63430008140033",
  "linkReferences": {},
  "deployedLinkReferences": {}
}