{
  "_format": "hh-sol-artifact-1",
  "contractName": "FileSharing",
  "sourceName": "contracts/FileSharing.sol",
  "abi": [
    {
      "inputs": [],
      "stateMutability": "nonpayable",
      "type": "constructor"
    },
    {
      "inputs": [
        {
          "internalType": "address",
          "name": "owner",
          "type": "address"
        }
      ],
      "name": "OwnableInvalidOwner",
      "type": "error"
    },
    {
      "inputs": [
        {
          "internalType": "address",
          "name": "account",
          "type": "address"
        }
      ],
      "name": "OwnableUnauthorizedAccount",
      "type": "error"
    },
    {
      "anonymous": false,
      "inputs": [
        {
          "indexed": true,
          "internalType": "string",
          "name": "fileHash",
          "type": "string"
        },
        {
          "indexed": true,
          "internalType": "address",
          "name": "uploader",
          "type": "address"
        }
      ],
      "name": "FileDeleted",
      "type": "event"
    },
    {
      "anonymous": false,
      "inputs": [
        {
          "indexed": true,
          "internalType": "string",
          "name": "fileHash",
          "type": "string"
        },
        {
          "indexed": true,
          "internalType": "address",
          "name": "uploader",
          "type": "address"
        },
        {
          "indexed": true,
          "internalType": "address",
          "name": "recipient",
          "type": "address"
        }
      ],
      "name": "FileShared",
      "type": "event"
    },
    {
      "anonymous": false,
      "inputs": [
        {
          "indexed": true,
          "internalType": "string",
          "name": "fileHash",
          "type": "string"
        },
        {
          "indexed": false,
          "internalType": "string",
          "name": "fileName",
          "type": "string"
        },
        {
          "indexed": false,
          "internalType": "uint256",
          "name": "fileSize",
          "type": "uint256"
        },
        {
          "indexed": false,
          "internalType": "string",
          "name": "fileType",
          "type": "string"
        },
        {
          "indexed": true,
          "internalType": "address",
          "name": "uploader",
          "type": "address"
        },
        {
          "indexed": false,
          "internalType": "uint256",
          "name": "version",
          "type": "uint256"
        }
      ],
      "name": "FileUploaded",
      "type": "event"
    },
    {
      "anonymous": false,
      "inputs": [
        {
          "indexed": true,
          "internalType": "string",
          "name": "fileName",
          "type": "string"
        },
        {
          "indexed": false,
          "internalType": "string",
          "name": "newHash",
          "type": "string"
        },
        {
          "indexed": false,
          "internalType": "uint256",
          "name": "newVersion",
          "type": "uint256"
        }
      ],
      "name": "FileVersioned",
      "type": "event"
    },
    {
      "anonymous": false,
      "inputs": [
        {
          "indexed": true,
          "internalType": "address",
          "name": "previousOwner",
          "type": "address"
        },
        {
          "indexed": true,
          "internalType": "address",
          "name": "newOwner",
          "type": "address"
        }
      ],
      "name": "OwnershipTransferred",
      "type": "event"
    },
    {
      "anonymous": false,
      "inputs": [
        {
          "indexed": true,
          "internalType": "address",
          "name": "user",
          "type": "address"
        },
        {
          "indexed": true,
          "internalType": "address",
          "name": "admin",
          "type": "address"
        }
      ],
      "name": "UserBanned",
      "type": "event"
    },
    {
      "anonymous": false,
      "inputs": [
        {
          "indexed": true,
          "internalType": "address",
          "name": "user",
          "type": "address"
        },
        {
          "indexed": true,
          "internalType": "address",
          "name": "admin",
          "type": "address"
        }
      ],
      "name": "UserUnbanned",
      "type": "event"
    },
    {
      "inputs": [
        {
          "internalType": "address",
          "name": "_user",
          "type": "address"
        }
      ],
      "name": "banUser",
      "outputs": [],
      "stateMutability": "nonpayable",
      "type": "function"
    },
    {
      "inputs": [
        {
          "internalType": "string",
          "name": "_fileName",
          "type": "string"
        },
        {
          "internalType": "uint256",
          "name": "_version",
          "type": "uint256"
        }
      ],
      "name": "deleteFile",
      "outputs": [],
      "stateMutability": "nonpayable",
      "type": "function"
    },
    {
      "inputs": [
        {
          "internalType": "string",
          "name": "",
          "type": "string"
        },
        {
          "internalType": "uint256",
          "name": "",
          "type": "uint256"
        }
      ],
      "name": "files",
      "outputs": [
        {
          "internalType": "string",
          "name": "fileHash",
          "type": "string"
        },
        {
          "internalType": "string",
          "name": "fileName",
          "type": "string"
        },
        {
          "internalType": "uint256",
          "name": "fileSize",
          "type": "uint256"
        },
        {
          "internalType": "string",
          "name": "fileType",
          "type": "string"
        },
        {
          "internalType": "address",
          "name": "uploader",
          "type": "address"
        },
        {
          "internalType": "bool",
          "name": "isDeleted",
          "type": "bool"
        },
        {
          "internalType": "uint256",
          "name": "version",
          "type": "uint256"
        }
      ],
      "stateMutability": "view",
      "type": "function"
    },
    {
      "inputs": [],
      "name": "getAllFiles",
      "outputs": [
        {
          "components": [
            {
              "internalType": "string",
              "name": "fileHash",
              "type": "string"
            },
            {
              "internalType": "string",
              "name": "fileName",
              "type": "string"
            },
            {
              "internalType": "uint256",
              "name": "fileSize",
              "type": "uint256"
            },
            {
              "internalType": "string",
              "name": "fileType",
              "type": "string"
            },
            {
              "internalType": "address",
              "name": "uploader",
              "type": "address"
            },
            {
              "internalType": "address[]",
              "name": "sharedWith",
              "type": "address[]"
            },
            {
              "internalType": "bool",
              "name": "isDeleted",
              "type": "bool"
            },
            {
              "internalType": "uint256",
              "name": "version",
              "type": "uint256"
            }
          ],
          "internalType": "struct FileSharing.SharedFile[]",
          "name": "",
          "type": "tuple[]"
        }
      ],
      "stateMutability": "view",
      "type": "function"
    },
    {
      "inputs": [],
      "name": "getSharedFiles",
      "outputs": [
        {
          "components": [
            {
              "internalType": "string",
              "name": "fileHash",
              "type": "string"
            },
            {
              "internalType": "string",
              "name": "fileName",
              "type": "string"
            },
            {
              "internalType": "uint256",
              "name": "fileSize",
              "type": "uint256"
            },
            {
              "internalType": "string",
              "name": "fileType",
              "type": "string"
            },
            {
              "internalType": "address",
              "name": "uploader",
              "type": "address"
            },
            {
              "internalType": "address[]",
              "name": "sharedWith",
              "type": "address[]"
            },
            {
              "internalType": "bool",
              "name": "isDeleted",
              "type": "bool"
            },
            {
              "internalType": "uint256",
              "name": "version",
              "type": "uint256"
            }
          ],
          "internalType": "struct FileSharing.SharedFile[]",
          "name": "",
          "type": "tuple[]"
        }
      ],
      "stateMutability": "view",
      "type": "function"
    },
    {
      "inputs": [
        {
          "internalType": "address",
          "name": "_user",
          "type": "address"
        }
      ],
      "name": "getUserFiles",
      "outputs": [
        {
          "components": [
            {
              "internalType": "string",
              "name": "fileHash",
              "type": "string"
            },
            {
              "internalType": "string",
              "name": "fileName",
              "type": "string"
            },
            {
              "internalType": "uint256",
              "name": "fileSize",
              "type": "uint256"
            },
            {
              "internalType": "string",
              "name": "fileType",
              "type": "string"
            },
            {
              "internalType": "address",
              "name": "uploader",
              "type": "address"
            },
            {
              "internalType": "address[]",
              "name": "sharedWith",
              "type": "address[]"
            },
            {
              "internalType": "bool",
              "name": "isDeleted",
              "type": "bool"
            },
            {
              "internalType": "uint256",
              "name": "version",
              "type": "uint256"
            }
          ],
          "internalType": "struct FileSharing.SharedFile[]",
          "name": "",
          "type": "tuple[]"
        }
      ],
      "stateMutability": "view",
      "type": "function"
    },
    {
      "inputs": [
        {
          "internalType": "address",
          "name": "",
          "type": "address"
        }
      ],
      "name": "isAdmin",
      "outputs": [
        {
          "internalType": "bool",
          "name": "",
          "type": "bool"
        }
      ],
      "stateMutability": "view",
      "type": "function"
    },
    {
      "inputs": [
        {
          "internalType": "address",
          "name": "",
          "type": "address"
        }
      ],
      "name": "isBanned",
      "outputs": [
        {
          "internalType": "bool",
          "name": "",
          "type": "bool"
        }
      ],
      "stateMutability": "view",
      "type": "function"
    },
    {
      "inputs": [
        {
          "internalType": "string",
          "name": "",
          "type": "string"
        }
      ],
      "name": "latestVersion",
      "outputs": [
        {
          "internalType": "uint256",
          "name": "",
          "type": "uint256"
        }
      ],
      "stateMutability": "view",
      "type": "function"
    },
    {
      "inputs": [],
      "name": "owner",
      "outputs": [
        {
          "internalType": "address",
          "name": "",
          "type": "address"
        }
      ],
      "stateMutability": "view",
      "type": "function"
    },
    {
      "inputs": [
        {
          "internalType": "uint256",
          "name": "",
          "type": "uint256"
        }
      ],
      "name": "registeredUsers",
      "outputs": [
        {
          "internalType": "address",
          "name": "",
          "type": "address"
        }
      ],
      "stateMutability": "view",
      "type": "function"
    },
    {
      "inputs": [],
      "name": "renounceOwnership",
      "outputs": [],
      "stateMutability": "nonpayable",
      "type": "function"
    },
    {
      "inputs": [
        {
          "internalType": "string",
          "name": "_fileHash",
          "type": "string"
        },
        {
          "internalType": "address",
          "name": "_recipient",
          "type": "address"
        }
      ],
      "name": "shareFile",
      "outputs": [],
      "stateMutability": "nonpayable",
      "type": "function"
    },
    {
      "inputs": [
        {
          "internalType": "address",
          "name": "",
          "type": "address"
        },
        {
          "internalType": "uint256",
          "name": "",
          "type": "uint256"
        }
      ],
      "name": "sharedWithUser",
      "outputs": [
        {
          "internalType": "string",
          "name": "",
          "type": "string"
        }
      ],
      "stateMutability": "view",
      "type": "function"
    },
    {
      "inputs": [
        {
          "internalType": "address",
          "name": "newOwner",
          "type": "address"
        }
      ],
      "name": "transferOwnership",
      "outputs": [],
      "stateMutability": "nonpayable",
      "type": "function"
    },
    {
      "inputs": [
        {
          "internalType": "address",
          "name": "_user",
          "type": "address"
        }
      ],
      "name": "unbanUser",
      "outputs": [],
      "stateMutability": "nonpayable",
      "type": "function"
    },
    {
      "inputs": [
        {
          "internalType": "string",
          "name": "_fileHash",
          "type": "string"
        },
        {
          "internalType": "string",
          "name": "_fileName",
          "type": "string"
        },
        {
          "internalType": "uint256",
          "name": "_fileSize",
          "type": "uint256"
        },
        {
          "internalType": "string",
          "name": "_fileType",
          "type": "string"
        }
      ],
      "name": "uploadFile",
      "outputs": [],
      "stateMutability": "nonpayable",
      "type": "function"
    },
    {
      "inputs": [
        {
          "internalType": "address",
          "name": "",
          "type": "address"
        },
        {
          "internalType": "uint256",
          "name": "",
          "type": "uint256"
        }
      ],
      "name": "userFiles",
      "outputs": [
        {
          "internalType": "string",
          "name": "",
          "type": "string"
        }
      ],
      "stateMutability": "view",
      "type": "function"
    }
  ],
  "bytecode": "0x60806040523480156200001157600080fd5b5033600073ffffffffffffffffffffffffffffffffffffffff168173ffffffffffffffffffffffffffffffffffffffff1603620000885760006040517f1e4fbdf70000000000000000000000000000000000000000000000000000000081526004016200007f919062000201565b60405180910390fd5b6200009981620000f860201b60201c565b506001600460003373ffffffffffffffffffffffffffffffffffffffff1673ffffffffffffffffffffffffffffffffffffffff16815260200190815260200160002060006101000a81548160ff0219169083151502179055506200021e565b60008060009054906101000a900473ffffffffffffffffffffffffffffffffffffffff169050816000806101000a81548173ffffffffffffffffffffffffffffffffffffffff021916908373ffffffffffffffffffffffffffffffffffffffff1602179055508173ffffffffffffffffffffffffffffffffffffffff168173ffffffffffffffffffffffffffffffffffffffff167f8be0079c531659141344cd1fd0a4f28419497f9722a3daafe3b4186f6b6457e060405160405180910390a35050565b600073ffffffffffffffffffffffffffffffffffffffff82169050919050565b6000620001e982620001bc565b9050919050565b620001fb81620001dc565b82525050565b6000602082019050620002186000830184620001f0565b92915050565b6141ae806200022e6000396000f3fe608060405234801561001057600080fd5b50600436106101165760003560e01c80638da5cb5b116100a2578063a8759ee011610071578063a8759ee01461030b578063d5c37a0c1461033b578063ebceb82c14610357578063f2fde38b14610373578063ff24b5d51461038f57610116565b80638da5cb5b146102695780638e05848214610287578063914e3144146102bd57806397f735d5146102db57610116565b806324d7806c116100e957806324d7806c146101b35780634d12b695146101e3578063715018a6146101ff578063718f38a6146102095780637259e0f81461023957610116565b8063018468331461011b578063070f8f5a1461013757806310d86b1f146101675780631fc3792214610183575b600080fd5b6101356004803603810190610130919061303e565b6103ad565b005b610151600480360381019061014c91906130f9565b610890565b60405161015e9190613151565b60405180910390f35b610181600480360381019061017c91906131ca565b6108be565b005b61019d600480360381019061019891906131ca565b610a77565b6040516101aa91906134e5565b60405180910390f35b6101cd60048036038101906101c891906131ca565b6110a8565b6040516101da9190613516565b60405180910390f35b6101fd60048036038101906101f891906131ca565b6110c8565b005b610207611280565b005b610223600480360381019061021e9190613531565b611294565b60405161023091906135bb565b60405180910390f35b610253600480360381019061024e91906135dd565b61134d565b6040516102609190613619565b60405180910390f35b61027161138c565b60405161027e9190613619565b60405180910390f35b6102a1600480360381019061029c9190613634565b6113b5565b6040516102b49796959493929190613690565b60405180910390f35b6102c56115df565b6040516102d291906134e5565b60405180910390f35b6102f560048036038101906102f091906131ca565b611c0e565b6040516103029190613516565b60405180910390f35b61032560048036038101906103209190613531565b611c2e565b60405161033291906135bb565b60405180910390f35b61035560048036038101906103509190613634565b611ce7565b005b610371600480360381019061036c9190613714565b611f57565b005b61038d600480360381019061038891906131ca565b612510565b005b610397612596565b6040516103a491906134e5565b60405180910390f35b600560003373ffffffffffffffffffffffffffffffffffffffff1673ffffffffffffffffffffffffffffffffffffffff16815260200190815260200160002060009054906101000a900460ff161561043a576040517f08c379a0000000000000000000000000000000000000000000000000000000008152600401610431906137bc565b60405180910390fd5b600084511161047e576040517f08c379a000000000000000000000000000000000000000000000000000000000815260040161047590613828565b60405180910390fd5b60008351116104c2576040517f08c379a00000000000000000000000000000000000000000000000000000000081526004016104b990613894565b60405180910390fd5b60008211610505576040517f08c379a00000000000000000000000000000000000000000000000000000000081526004016104fc90613900565b60405180910390fd5b6000600260003373ffffffffffffffffffffffffffffffffffffffff1673ffffffffffffffffffffffffffffffffffffffff16815260200190815260200160002080549050036105b3576007339080600181540180825580915050600190039060005260206000200160009091909190916101000a81548173ffffffffffffffffffffffffffffffffffffffff021916908373ffffffffffffffffffffffffffffffffffffffff1602179055505b600060016006856040516105c7919061395c565b9081526020016040518091039020546105e091906139a2565b90506040518061010001604052808681526020018581526020018481526020018381526020013373ffffffffffffffffffffffffffffffffffffffff168152602001600067ffffffffffffffff81111561063d5761063c612edd565b5b60405190808252806020026020018201604052801561066b5781602001602082028036833780820191505090505b5081526020016000151581526020018281525060018560405161068e919061395c565b9081526020016040518091039020600083815260200190815260200160002060008201518160000190816106c29190613be2565b5060208201518160010190816106d89190613be2565b506040820151816002015560608201518160030190816106f89190613be2565b5060808201518160040160006101000a81548173ffffffffffffffffffffffffffffffffffffffff021916908373ffffffffffffffffffffffffffffffffffffffff16021790555060a082015181600501908051906020019061075c929190612daa565b5060c08201518160060160006101000a81548160ff02191690831515021790555060e082015181600701559050508060068560405161079b919061395c565b908152602001604051809103902081905550600260003373ffffffffffffffffffffffffffffffffffffffff1673ffffffffffffffffffffffffffffffffffffffff1681526020019081526020016000208590806001815401808255809150506001900390600052602060002001600090919091909150908161081e9190613be2565b503373ffffffffffffffffffffffffffffffffffffffff1685604051610844919061395c565b60405180910390207fc3483d109c79fd140e5f0d0c1dff38f6510c4a50b5d8b5596edc259607103856868686866040516108819493929190613cb4565b60405180910390a35050505050565b6006818051602081018201805184825260208301602085012081835280955050505050506000915090505481565b6108c6612c57565b600073ffffffffffffffffffffffffffffffffffffffff168173ffffffffffffffffffffffffffffffffffffffff1603610935576040517f08c379a000000000000000000000000000000000000000000000000000000000815260040161092c90613d53565b60405180910390fd5b600560008273ffffffffffffffffffffffffffffffffffffffff1673ffffffffffffffffffffffffffffffffffffffff16815260200190815260200160002060009054906101000a900460ff16156109c2576040517f08c379a00000000000000000000000000000000000000000000000000000000081526004016109b990613dbf565b60405180910390fd5b6001600560008373ffffffffffffffffffffffffffffffffffffffff1673ffffffffffffffffffffffffffffffffffffffff16815260200190815260200160002060006101000a81548160ff0219169083151502179055503373ffffffffffffffffffffffffffffffffffffffff168173ffffffffffffffffffffffffffffffffffffffff167f9d2a81710659dec84d416abd31e959762fb5b9b3a09a6e0c505acccdde512c3560405160405180910390a350565b60606000600260008473ffffffffffffffffffffffffffffffffffffffff1673ffffffffffffffffffffffffffffffffffffffff168152602001908152602001600020805480602002602001604051908101604052809291908181526020016000905b82821015610b86578382906000526020600020018054610af990613a05565b80601f0160208091040260200160405190810160405280929190818152602001828054610b2590613a05565b8015610b725780601f10610b4757610100808354040283529160200191610b72565b820191906000526020600020905b815481529060010190602001808311610b5557829003601f168201915b505050505081526020019060010190610ada565b5050505090506000815167ffffffffffffffff811115610ba957610ba8612edd565b5b604051908082528060200260200182016040528015610be257816020015b610bcf612e34565b815260200190600190039081610bc75790505b5090506000805b8351811015611099576000600190505b60066001868481518110610c1057610c0f613ddf565b5b6020026020010151604051610c25919061395c565b90815260200160405180910390206000838152602001908152602001600020600101604051610c549190613e91565b908152602001604051809103902054811161108557600180868481518110610c7f57610c7e613ddf565b5b6020026020010151604051610c94919061395c565b90815260200160405180910390206000838152602001908152602001600020600101604051610cc39190613e91565b9081526020016040518091039020600082815260200190815260200160002060060160009054906101000a900460ff1661107257600180868481518110610d0d57610d0c613ddf565b5b6020026020010151604051610d22919061395c565b90815260200160405180910390206000838152602001908152602001600020600101604051610d519190613e91565b9081526020016040518091039020600082815260200190815260200160002060405180610100016040529081600082018054610d8c90613a05565b80601f0160208091040260200160405190810160405280929190818152602001828054610db890613a05565b8015610e055780601f10610dda57610100808354040283529160200191610e05565b820191906000526020600020905b815481529060010190602001808311610de857829003601f168201915b50505050508152602001600182018054610e1e90613a05565b80601f0160208091040260200160405190810160405280929190818152602001828054610e4a90613a05565b8015610e975780601f10610e6c57610100808354040283529160200191610e97565b820191906000526020600020905b815481529060010190602001808311610e7a57829003601f168201915b5050505050815260200160028201548152602001600382018054610eba90613a05565b80601f0160208091040260200160405190810160405280929190818152602001828054610ee690613a05565b8015610f335780601f10610f0857610100808354040283529160200191610f33565b820191906000526020600020905b815481529060010190602001808311610f1657829003601f168201915b505050505081526020016004820160009054906101000a900473ffffffffffffffffffffffffffffffffffffffff1673ffffffffffffffffffffffffffffffffffffffff1673ffffffffffffffffffffffffffffffffffffffff1681526020016005820180548060200260200160405190810160405280929190818152602001828054801561101757602002820191906000526020600020905b8160009054906101000a900473ffffffffffffffffffffffffffffffffffffffff1673ffffffffffffffffffffffffffffffffffffffff1681526020019060010190808311610fcd575b505050505081526020016006820160009054906101000a900460ff1615151515815260200160078201548152505084848151811061105857611057613ddf565b5b6020026020010181905250828061106e90613ea8565b9350505b808061107d90613ea8565b915050610bf9565b50808061109190613ea8565b915050610be9565b50808252819350505050919050565b60046020528060005260406000206000915054906101000a900460ff1681565b6110d0612c57565b600073ffffffffffffffffffffffffffffffffffffffff168173ffffffffffffffffffffffffffffffffffffffff160361113f576040517f08c379a000000000000000000000000000000000000000000000000000000000815260040161113690613d53565b60405180910390fd5b600560008273ffffffffffffffffffffffffffffffffffffffff1673ffffffffffffffffffffffffffffffffffffffff16815260200190815260200160002060009054906101000a900460ff166111cb576040517f08c379a00000000000000000000000000000000000000000000000000000000081526004016111c290613f3c565b60405180910390fd5b6000600560008373ffffffffffffffffffffffffffffffffffffffff1673ffffffffffffffffffffffffffffffffffffffff16815260200190815260200160002060006101000a81548160ff0219169083151502179055503373ffffffffffffffffffffffffffffffffffffffff168173ffffffffffffffffffffffffffffffffffffffff167ff11fd0be5eda892011eed5ccf21f149a3e3533001e220f8aef844d83842ac61960405160405180910390a350565b611288612c57565b6112926000612cde565b565b600260205281600052604060002081815481106112b057600080fd5b906000526020600020016000915091505080546112cc90613a05565b80601f01602080910402602001604051908101604052809291908181526020018280546112f890613a05565b80156113455780601f1061131a57610100808354040283529160200191611345565b820191906000526020600020905b81548152906001019060200180831161132857829003601f168201915b505050505081565b6007818154811061135d57600080fd5b906000526020600020016000915054906101000a900473ffffffffffffffffffffffffffffffffffffffff1681565b60008060009054906101000a900473ffffffffffffffffffffffffffffffffffffffff16905090565b600182805160208101820180518482526020830160208501208183528095505050505050602052806000526040600020600091509150508060000180546113fb90613a05565b80601f016020809104026020016040519081016040528092919081815260200182805461142790613a05565b80156114745780601f1061144957610100808354040283529160200191611474565b820191906000526020600020905b81548152906001019060200180831161145757829003601f168201915b50505050509080600101805461148990613a05565b80601f01602080910402602001604051908101604052809291908181526020018280546114b590613a05565b80156115025780601f106114d757610100808354040283529160200191611502565b820191906000526020600020905b8154815290600101906020018083116114e557829003601f168201915b50505050509080600201549080600301805461151d90613a05565b80601f016020809104026020016040519081016040528092919081815260200182805461154990613a05565b80156115965780601f1061156b57610100808354040283529160200191611596565b820191906000526020600020905b81548152906001019060200180831161157957829003601f168201915b5050505050908060040160009054906101000a900473ffffffffffffffffffffffffffffffffffffffff16908060060160009054906101000a900460ff16908060070154905087565b60606000600360003373ffffffffffffffffffffffffffffffffffffffff1673ffffffffffffffffffffffffffffffffffffffff168152602001908152602001600020805480602002602001604051908101604052809291908181526020016000905b828210156116ee57838290600052602060002001805461166190613a05565b80601f016020809104026020016040519081016040528092919081815260200182805461168d90613a05565b80156116da5780601f106116af576101008083540402835291602001916116da565b820191906000526020600020905b8154815290600101906020018083116116bd57829003601f168201915b505050505081526020019060010190611642565b5050505090506000815167ffffffffffffffff81111561171157611710612edd565b5b60405190808252806020026020018201604052801561174a57816020015b611737612e34565b81526020019060019003908161172f5790505b5090506000805b8351811015611c01576000600190505b6006600186848151811061177857611777613ddf565b5b602002602001015160405161178d919061395c565b908152602001604051809103902060008381526020019081526020016000206001016040516117bc9190613e91565b9081526020016040518091039020548111611bed576001808684815181106117e7576117e6613ddf565b5b60200260200101516040516117fc919061395c565b9081526020016040518091039020600083815260200190815260200160002060010160405161182b9190613e91565b9081526020016040518091039020600082815260200190815260200160002060060160009054906101000a900460ff16611bda5760018086848151811061187557611874613ddf565b5b602002602001015160405161188a919061395c565b908152602001604051809103902060008381526020019081526020016000206001016040516118b99190613e91565b90815260200160405180910390206000828152602001908152602001600020604051806101000160405290816000820180546118f490613a05565b80601f016020809104026020016040519081016040528092919081815260200182805461192090613a05565b801561196d5780601f106119425761010080835404028352916020019161196d565b820191906000526020600020905b81548152906001019060200180831161195057829003601f168201915b5050505050815260200160018201805461198690613a05565b80601f01602080910402602001604051908101604052809291908181526020018280546119b290613a05565b80156119ff5780601f106119d4576101008083540402835291602001916119ff565b820191906000526020600020905b8154815290600101906020018083116119e257829003601f168201915b5050505050815260200160028201548152602001600382018054611a2290613a05565b80601f0160208091040260200160405190810160405280929190818152602001828054611a4e90613a05565b8015611a9b5780601f10611a7057610100808354040283529160200191611a9b565b820191906000526020600020905b815481529060010190602001808311611a7e57829003601f168201915b505050505081526020016004820160009054906101000a900473ffffffffffffffffffffffffffffffffffffffff1673ffffffffffffffffffffffffffffffffffffffff1673ffffffffffffffffffffffffffffffffffffffff16815260200160058201805480602002602001604051908101604052809291908181526020018280548015611b7f57602002820191906000526020600020905b8160009054906101000a900473ffffffffffffffffffffffffffffffffffffffff1673ffffffffffffffffffffffffffffffffffffffff1681526020019060010190808311611b35575b505050505081526020016006820160009054906101000a900460ff16151515158152602001600782015481525050848481518110611bc057611bbf613ddf565b5b60200260200101819052508280611bd690613ea8565b9350505b8080611be590613ea8565b915050611761565b508080611bf990613ea8565b915050611751565b5080825281935050505090565b60056020528060005260406000206000915054906101000a900460ff1681565b60036020528160005260406000208181548110611c4a57600080fd5b90600052602060002001600091509150508054611c6690613a05565b80601f0160208091040260200160405190810160405280929190818152602001828054611c9290613a05565b8015611cdf5780601f10611cb457610100808354040283529160200191611cdf565b820191906000526020600020905b815481529060010190602001808311611cc257829003601f168201915b505050505081565b81813373ffffffffffffffffffffffffffffffffffffffff16600183604051611d10919061395c565b9081526020016040518091039020600083815260200190815260200160002060040160009054906101000a900473ffffffffffffffffffffffffffffffffffffffff1673ffffffffffffffffffffffffffffffffffffffff161480611dbe5750600460003373ffffffffffffffffffffffffffffffffffffffff1673ffffffffffffffffffffffffffffffffffffffff16815260200190815260200160002060009054906101000a900460ff165b611dfd576040517f08c379a0000000000000000000000000000000000000000000000000000000008152600401611df490613fa8565b60405180910390fd5b600184604051611e0d919061395c565b9081526020016040518091039020600084815260200190815260200160002060060160009054906101000a900460ff1615611e7d576040517f08c379a0000000000000000000000000000000000000000000000000000000008152600401611e7490614014565b60405180910390fd5b60018085604051611e8e919061395c565b9081526020016040518091039020600085815260200190815260200160002060060160006101000a81548160ff0219169083151502179055503373ffffffffffffffffffffffffffffffffffffffff16600185604051611eee919061395c565b90815260200160405180910390206000858152602001908152602001600020600001604051611f1d9190613e91565b60405180910390207fb7f404dbaa1b2ab0528fd20ea00c12bcd6d8d8e57a5e63af5710d9031e62ef1f60405160405180910390a350505050565b600560003373ffffffffffffffffffffffffffffffffffffffff1673ffffffffffffffffffffffffffffffffffffffff16815260200190815260200160002060009054906101000a900460ff1615611fe4576040517f08c379a0000000000000000000000000000000000000000000000000000000008152600401611fdb906137bc565b60405180910390fd5b6000825111612028576040517f08c379a000000000000000000000000000000000000000000000000000000000815260040161201f90613828565b60405180910390fd5b600073ffffffffffffffffffffffffffffffffffffffff168173ffffffffffffffffffffffffffffffffffffffff1603612097576040517f08c379a000000000000000000000000000000000000000000000000000000000815260040161208e90614080565b60405180910390fd5b6000600190505b60066001846040516120b0919061395c565b908152602001604051809103902060008381526020019081526020016000206001016040516120df9190613e91565b90815260200160405180910390205481116124d05782604051602001612105919061395c565b604051602081830303815290604052805190602001206001808560405161212c919061395c565b9081526020016040518091039020600084815260200190815260200160002060010160405161215b9190613e91565b9081526020016040518091039020600083815260200190815260200160002060000160405160200161218d9190613e91565b6040516020818303038152906040528051906020012014801561221d5750600180846040516121bc919061395c565b908152602001604051809103902060008381526020019081526020016000206001016040516121eb9190613e91565b9081526020016040518091039020600082815260200190815260200160002060060160009054906101000a900460ff16155b156124bd573373ffffffffffffffffffffffffffffffffffffffff166001808560405161224a919061395c565b908152602001604051809103902060008481526020019081526020016000206001016040516122799190613e91565b9081526020016040518091039020600083815260200190815260200160002060040160009054906101000a900473ffffffffffffffffffffffffffffffffffffffff1673ffffffffffffffffffffffffffffffffffffffff1614612312576040517f08c379a0000000000000000000000000000000000000000000000000000000008152600401612309906140ec565b60405180910390fd5b60018084604051612323919061395c565b908152602001604051809103902060008381526020019081526020016000206001016040516123529190613e91565b90815260200160405180910390206000828152602001908152602001600020600501829080600181540180825580915050600190039060005260206000200160009091909190916101000a81548173ffffffffffffffffffffffffffffffffffffffff021916908373ffffffffffffffffffffffffffffffffffffffff160217905550600360008373ffffffffffffffffffffffffffffffffffffffff1673ffffffffffffffffffffffffffffffffffffffff168152602001908152602001600020839080600181540180825580915050600190039060005260206000200160009091909190915090816124469190613be2565b508173ffffffffffffffffffffffffffffffffffffffff163373ffffffffffffffffffffffffffffffffffffffff1684604051612483919061395c565b60405180910390207f8cfe3694d3c81d8f37212834f204c59322399b95a805e4351371085b98c697dc60405160405180910390a45061250c565b80806124c890613ea8565b91505061209e565b506040517f08c379a000000000000000000000000000000000000000000000000000000000815260040161250390614158565b60405180910390fd5b5050565b612518612c57565b600073ffffffffffffffffffffffffffffffffffffffff168173ffffffffffffffffffffffffffffffffffffffff160361258a5760006040517f1e4fbdf70000000000000000000000000000000000000000000000000000000081526004016125819190613619565b60405180910390fd5b61259381612cde565b50565b60606125a0612c57565b6000805b6007805490508110156126525760026000600783815481106125c9576125c8613ddf565b5b9060005260206000200160009054906101000a900473ffffffffffffffffffffffffffffffffffffffff1673ffffffffffffffffffffffffffffffffffffffff1673ffffffffffffffffffffffffffffffffffffffff168152602001908152602001600020805490508261263d91906139a2565b9150808061264a90613ea8565b9150506125a4565b5060008167ffffffffffffffff81111561266f5761266e612edd565b5b6040519080825280602002602001820160405280156126a857816020015b612695612e34565b81526020019060019003908161268d5790505b5090506000805b600780549050811015612c4a576000600782815481106126d2576126d1613ddf565b5b9060005260206000200160009054906101000a900473ffffffffffffffffffffffffffffffffffffffff1690506000600260008373ffffffffffffffffffffffffffffffffffffffff1673ffffffffffffffffffffffffffffffffffffffff168152602001908152602001600020805480602002602001604051908101604052809291908181526020016000905b8282101561280c57838290600052602060002001805461277f90613a05565b80601f01602080910402602001604051908101604052809291908181526020018280546127ab90613a05565b80156127f85780601f106127cd576101008083540402835291602001916127f8565b820191906000526020600020905b8154815290600101906020018083116127db57829003601f168201915b505050505081526020019060010190612760565b50505050905060005b8151811015612c34576000600190505b600683838151811061283a57612839613ddf565b5b602002602001015160405161284f919061395c565b9081526020016040518091039020548111612c2057600183838151811061287957612878613ddf565b5b602002602001015160405161288e919061395c565b9081526020016040518091039020600082815260200190815260200160002060060160009054906101000a900460ff16612c0d5760018383815181106128d7576128d6613ddf565b5b60200260200101516040516128ec919061395c565b908152602001604051809103902060008281526020019081526020016000206040518061010001604052908160008201805461292790613a05565b80601f016020809104026020016040519081016040528092919081815260200182805461295390613a05565b80156129a05780601f10612975576101008083540402835291602001916129a0565b820191906000526020600020905b81548152906001019060200180831161298357829003601f168201915b505050505081526020016001820180546129b990613a05565b80601f01602080910402602001604051908101604052809291908181526020018280546129e590613a05565b8015612a325780601f10612a0757610100808354040283529160200191612a32565b820191906000526020600020905b815481529060010190602001808311612a1557829003601f168201915b5050505050815260200160028201548152602001600382018054612a5590613a05565b80601f0160208091040260200160405190810160405280929190818152602001828054612a8190613a05565b8015612ace5780601f10612aa357610100808354040283529160200191612ace565b820191906000526020600020905b815481529060010190602001808311612ab157829003601f168201915b505050505081526020016004820160009054906101000a900473ffffffffffffffffffffffffffffffffffffffff1673ffffffffffffffffffffffffffffffffffffffff1673ffffffffffffffffffffffffffffffffffffffff16815260200160058201805480602002602001604051908101604052809291908181526020018280548015612bb257602002820191906000526020600020905b8160009054906101000a900473ffffffffffffffffffffffffffffffffffffffff1673ffffffffffffffffffffffffffffffffffffffff1681526020019060010190808311612b68575b505050505081526020016006820160009054906101000a900460ff16151515158152602001600782015481525050878781518110612bf357612bf2613ddf565b5b60200260200101819052508580612c0990613ea8565b9650505b8080612c1890613ea8565b915050612825565b508080612c2c90613ea8565b915050612815565b5050508080612c4290613ea8565b9150506126af565b5080825281935050505090565b612c5f612da2565b73ffffffffffffffffffffffffffffffffffffffff16612c7d61138c565b73ffffffffffffffffffffffffffffffffffffffff1614612cdc57612ca0612da2565b6040517f118cdaa7000000000000000000000000000000000000000000000000000000008152600401612cd39190613619565b60405180910390fd5b565b60008060009054906101000a900473ffffffffffffffffffffffffffffffffffffffff169050816000806101000a81548173ffffffffffffffffffffffffffffffffffffffff021916908373ffffffffffffffffffffffffffffffffffffffff1602179055508173ffffffffffffffffffffffffffffffffffffffff168173ffffffffffffffffffffffffffffffffffffffff167f8be0079c531659141344cd1fd0a4f28419497f9722a3daafe3b4186f6b6457e060405160405180910390a35050565b600033905090565b828054828255906000526020600020908101928215612e23579160200282015b82811115612e225782518260006101000a81548173ffffffffffffffffffffffffffffffffffffffff021916908373ffffffffffffffffffffffffffffffffffffffff16021790555091602001919060010190612dca565b5b509050612e309190612e91565b5090565b60405180610100016040528060608152602001606081526020016000815260200160608152602001600073ffffffffffffffffffffffffffffffffffffffff16815260200160608152602001600015158152602001600081525090565b5b80821115612eaa576000816000905550600101612e92565b5090565b6000604051905090565b600080fd5b600080fd5b600080fd5b600080fd5b6000601f19601f8301169050919050565b7f4e487b7100000000000000000000000000000000000000000000000000000000600052604160045260246000fd5b612f1582612ecc565b810181811067ffffffffffffffff82111715612f3457612f33612edd565b5b80604052505050565b6000612f47612eae565b9050612f538282612f0c565b919050565b600067ffffffffffffffff821115612f7357612f72612edd565b5b612f7c82612ecc565b9050602081019050919050565b82818337600083830152505050565b6000612fab612fa684612f58565b612f3d565b905082815260208101848484011115612fc757612fc6612ec7565b5b612fd2848285612f89565b509392505050565b600082601f830112612fef57612fee612ec2565b5b8135612fff848260208601612f98565b91505092915050565b6000819050919050565b61301b81613008565b811461302657600080fd5b50565b60008135905061303881613012565b92915050565b6000806000806080858703121561305857613057612eb8565b5b600085013567ffffffffffffffff81111561307657613075612ebd565b5b61308287828801612fda565b945050602085013567ffffffffffffffff8111156130a3576130a2612ebd565b5b6130af87828801612fda565b93505060406130c087828801613029565b925050606085013567ffffffffffffffff8111156130e1576130e0612ebd565b5b6130ed87828801612fda565b91505092959194509250565b60006020828403121561310f5761310e612eb8565b5b600082013567ffffffffffffffff81111561312d5761312c612ebd565b5b61313984828501612fda565b91505092915050565b61314b81613008565b82525050565b60006020820190506131666000830184613142565b92915050565b600073ffffffffffffffffffffffffffffffffffffffff82169050919050565b60006131978261316c565b9050919050565b6131a78161318c565b81146131b257600080fd5b50565b6000813590506131c48161319e565b92915050565b6000602082840312156131e0576131df612eb8565b5b60006131ee848285016131b5565b91505092915050565b600081519050919050565b600082825260208201905092915050565b6000819050602082019050919050565b600081519050919050565b600082825260208201905092915050565b60005b8381101561325d578082015181840152602081019050613242565b60008484015250505050565b600061327482613223565b61327e818561322e565b935061328e81856020860161323f565b61329781612ecc565b840191505092915050565b6132ab81613008565b82525050565b6132ba8161318c565b82525050565b600081519050919050565b600082825260208201905092915050565b6000819050602082019050919050565b60006132f883836132b1565b60208301905092915050565b6000602082019050919050565b600061331c826132c0565b61332681856132cb565b9350613331836132dc565b8060005b8381101561336257815161334988826132ec565b975061335483613304565b925050600181019050613335565b5085935050505092915050565b60008115159050919050565b6133848161336f565b82525050565b60006101008301600083015184820360008601526133a88282613269565b915050602083015184820360208601526133c28282613269565b91505060408301516133d760408601826132a2565b50606083015184820360608601526133ef8282613269565b915050608083015161340460808601826132b1565b5060a083015184820360a086015261341c8282613311565b91505060c083015161343160c086018261337b565b5060e083015161344460e08601826132a2565b508091505092915050565b600061345b838361338a565b905092915050565b6000602082019050919050565b600061347b826131f7565b6134858185613202565b93508360208202850161349785613213565b8060005b858110156134d357848403895281516134b4858261344f565b94506134bf83613463565b925060208a0199505060018101905061349b565b50829750879550505050505092915050565b600060208201905081810360008301526134ff8184613470565b905092915050565b6135108161336f565b82525050565b600060208201905061352b6000830184613507565b92915050565b6000806040838503121561354857613547612eb8565b5b6000613556858286016131b5565b925050602061356785828601613029565b9150509250929050565b600082825260208201905092915050565b600061358d82613223565b6135978185613571565b93506135a781856020860161323f565b6135b081612ecc565b840191505092915050565b600060208201905081810360008301526135d58184613582565b905092915050565b6000602082840312156135f3576135f2612eb8565b5b600061360184828501613029565b91505092915050565b6136138161318c565b82525050565b600060208201905061362e600083018461360a565b92915050565b6000806040838503121561364b5761364a612eb8565b5b600083013567ffffffffffffffff81111561366957613668612ebd565b5b61367585828601612fda565b925050602061368685828601613029565b9150509250929050565b600060e08201905081810360008301526136aa818a613582565b905081810360208301526136be8189613582565b90506136cd6040830188613142565b81810360608301526136df8187613582565b90506136ee608083018661360a565b6136fb60a0830185613507565b61370860c0830184613142565b98975050505050505050565b6000806040838503121561372b5761372a612eb8565b5b600083013567ffffffffffffffff81111561374957613748612ebd565b5b61375585828601612fda565b9250506020613766858286016131b5565b9150509250929050565b7f557365722069732062616e6e6564000000000000000000000000000000000000600082015250565b60006137a6600e83613571565b91506137b182613770565b602082019050919050565b600060208201905081810360008301526137d581613799565b9050919050565b7f46696c6520686173682063616e6e6f7420626520656d70747900000000000000600082015250565b6000613812601983613571565b915061381d826137dc565b602082019050919050565b6000602082019050818103600083015261384181613805565b9050919050565b7f46696c65206e616d652063616e6e6f7420626520656d70747900000000000000600082015250565b600061387e601983613571565b915061388982613848565b602082019050919050565b600060208201905081810360008301526138ad81613871565b9050919050565b7f46696c652073697a65206d7573742062652067726561746572207468616e2030600082015250565b60006138ea602083613571565b91506138f5826138b4565b602082019050919050565b60006020820190508181036000830152613919816138dd565b9050919050565b600081905092915050565b600061393682613223565b6139408185613920565b935061395081856020860161323f565b80840191505092915050565b6000613968828461392b565b915081905092915050565b7f4e487b7100000000000000000000000000000000000000000000000000000000600052601160045260246000fd5b60006139ad82613008565b91506139b883613008565b92508282019050808211156139d0576139cf613973565b5b92915050565b7f4e487b7100000000000000000000000000000000000000000000000000000000600052602260045260246000fd5b60006002820490506001821680613a1d57607f821691505b602082108103613a3057613a2f6139d6565b5b50919050565b60008190508160005260206000209050919050565b60006020601f8301049050919050565b600082821b905092915050565b600060088302613a987fffffffffffffffffffffffffffffffffffffffffffffffffffffffffffffffff82613a5b565b613aa28683613a5b565b95508019841693508086168417925050509392505050565b6000819050919050565b6000613adf613ada613ad584613008565b613aba565b613008565b9050919050565b6000819050919050565b613af983613ac4565b613b0d613b0582613ae6565b848454613a68565b825550505050565b600090565b613b22613b15565b613b2d818484613af0565b505050565b5b81811015613b5157613b46600082613b1a565b600181019050613b33565b5050565b601f821115613b9657613b6781613a36565b613b7084613a4b565b81016020851015613b7f578190505b613b93613b8b85613a4b565b830182613b32565b50505b505050565b600082821c905092915050565b6000613bb960001984600802613b9b565b1980831691505092915050565b6000613bd28383613ba8565b9150826002028217905092915050565b613beb82613223565b67ffffffffffffffff811115613c0457613c03612edd565b5b613c0e8254613a05565b613c19828285613b55565b600060209050601f831160018114613c4c5760008415613c3a578287015190505b613c448582613bc6565b865550613cac565b601f198416613c5a86613a36565b60005b82811015613c8257848901518255600182019150602085019450602081019050613c5d565b86831015613c9f5784890151613c9b601f891682613ba8565b8355505b6001600288020188555050505b505050505050565b60006080820190508181036000830152613cce8187613582565b9050613cdd6020830186613142565b8181036040830152613cef8185613582565b9050613cfe6060830184613142565b95945050505050565b7f496e76616c696420757365722061646472657373000000000000000000000000600082015250565b6000613d3d601483613571565b9150613d4882613d07565b602082019050919050565b60006020820190508181036000830152613d6c81613d30565b9050919050565b7f5573657220616c72656164792062616e6e656400000000000000000000000000600082015250565b6000613da9601383613571565b9150613db482613d73565b602082019050919050565b60006020820190508181036000830152613dd881613d9c565b9050919050565b7f4e487b7100000000000000000000000000000000000000000000000000000000600052603260045260246000fd5b60008154613e1b81613a05565b613e258186613920565b94506001821660008114613e405760018114613e5557613e88565b60ff1983168652811515820286019350613e88565b613e5e85613a36565b60005b83811015613e8057815481890152600182019150602081019050613e61565b838801955050505b50505092915050565b6000613e9d8284613e0e565b915081905092915050565b6000613eb382613008565b91507fffffffffffffffffffffffffffffffffffffffffffffffffffffffffffffffff8203613ee557613ee4613973565b5b600182019050919050565b7f55736572206e6f742062616e6e65640000000000000000000000000000000000600082015250565b6000613f26600f83613571565b9150613f3182613ef0565b602082019050919050565b60006020820190508181036000830152613f5581613f19565b9050919050565b7f4e6f7420617574686f72697a6564000000000000000000000000000000000000600082015250565b6000613f92600e83613571565b9150613f9d82613f5c565b602082019050919050565b60006020820190508181036000830152613fc181613f85565b9050919050565b7f46696c6520616c72656164792064656c65746564000000000000000000000000600082015250565b6000613ffe601483613571565b915061400982613fc8565b602082019050919050565b6000602082019050818103600083015261402d81613ff1565b9050919050565b7f496e76616c696420726563697069656e74206164647265737300000000000000600082015250565b600061406a601983613571565b915061407582614034565b602082019050919050565b600060208201905081810360008301526140998161405d565b9050919050565b7f596f7520617265206e6f7420746865206f776e65720000000000000000000000600082015250565b60006140d6601583613571565b91506140e1826140a0565b602082019050919050565b60006020820190508181036000830152614105816140c9565b9050919050565b7f46696c65206e6f7420666f756e64206f722064656c6574656400000000000000600082015250565b6000614142601983613571565b915061414d8261410c565b602082019050919050565b6000602082019050818103600083015261417181614135565b905091905056fea26469706673582212200db7856fab0371b2bbfbe8f4a8c7317fdcd7d0388fc0edf434c869223d7957f464736f6c63430008140033",
  "linkReferences": {},
  "deployedLinkReferences": {}
}