{
  "_format": "hh-sol-artifact-1",
  "contractName": "AdminControl",
  "sourceName": "contracts/AdminControl.sol",
  "abi": [
    {
      "inputs": [
        {
          "internalType": "address",
          "name": "_userManagementAddress",
          "type": "address"
        }
      ],
      "stateMutability": "nonpayable",
      "type": "constructor"
    },
    {
      "anonymous": false,
      "inputs": [
        {
          "indexed": true,
          "internalType": "address",
          "name": "admin",
          "type": "address"
        }
      ],
      "name": "AdminAdded",
      "type": "event"
    },
    {
      "anonymous": false,
      "inputs": [
        {
          "indexed": true,
          "internalType": "address",
          "name": "admin",
          "type": "address"
        }
      ],
      "name": "AdminRemoved",
      "type": "event"
    },
    {
      "anonymous": false,
      "inputs": [
        {
          "indexed": true,
          "internalType": "address",
          "name": "owner",
          "type": "address"
        },
        {
          "indexed": false,
          "internalType": "string",
          "name": "fileHash",
          "type": "string"
        }
      ],
      "name": "FileDeleted",
      "type": "event"
    },
    {
      "anonymous": false,
      "inputs": [
        {
          "indexed": true,
          "internalType": "address",
          "name": "owner",
          "type": "address"
        },
        {
          "indexed": false,
          "internalType": "string",
          "name": "fileHash",
          "type": "string"
        },
        {
          "indexed": true,
          "internalType": "address",
          "name": "recipient",
          "type": "address"
        }
      ],
      "name": "FileShared",
      "type": "event"
    },
    {
      "anonymous": false,
      "inputs": [
        {
          "indexed": true,
          "internalType": "address",
          "name": "owner",
          "type": "address"
        },
        {
          "indexed": false,
          "internalType": "string",
          "name": "fileHash",
          "type": "string"
        },
        {
          "indexed": false,
          "internalType": "string",
          "name": "fileName",
          "type": "string"
        }
      ],
      "name": "FileUploaded",
      "type": "event"
    },
    {
      "inputs": [
        {
          "internalType": "address",
          "name": "newAdmin",
          "type": "address"
        }
      ],
      "name": "addAdmin",
      "outputs": [],
      "stateMutability": "nonpayable",
      "type": "function"
    },
    {
      "inputs": [
        {
          "internalType": "string",
          "name": "fileName",
          "type": "string"
        },
        {
          "internalType": "uint256",
          "name": "version",
          "type": "uint256"
        }
      ],
      "name": "deleteFile",
      "outputs": [],
      "stateMutability": "nonpayable",
      "type": "function"
    },
    {
      "inputs": [],
      "name": "getAllFiles",
      "outputs": [
        {
          "components": [
            {
              "internalType": "string",
              "name": "fileName",
              "type": "string"
            },
            {
              "internalType": "string",
              "name": "fileHash",
              "type": "string"
            },
            {
              "internalType": "string",
              "name": "description",
              "type": "string"
            },
            {
              "internalType": "uint256",
              "name": "version",
              "type": "uint256"
            },
            {
              "internalType": "address",
              "name": "owner",
              "type": "address"
            },
            {
              "internalType": "bool",
              "name": "isDeleted",
              "type": "bool"
            },
            {
              "internalType": "address[]",
              "name": "sharedWith",
              "type": "address[]"
            }
          ],
          "internalType": "struct FileSharing.File[]",
          "name": "",
          "type": "tuple[]"
        }
      ],
      "stateMutability": "view",
      "type": "function"
    },
    {
      "inputs": [],
      "name": "getAllUsers",
      "outputs": [
        {
          "internalType": "address[]",
          "name": "",
          "type": "address[]"
        }
      ],
      "stateMutability": "view",
      "type": "function"
    },
    {
      "inputs": [
        {
          "internalType": "address",
          "name": "user",
          "type": "address"
        }
      ],
      "name": "getSharedFiles",
      "outputs": [
        {
          "components": [
            {
              "internalType": "string",
              "name": "fileName",
              "type": "string"
            },
            {
              "internalType": "string",
              "name": "fileHash",
              "type": "string"
            },
            {
              "internalType": "string",
              "name": "description",
              "type": "string"
            },
            {
              "internalType": "uint256",
              "name": "version",
              "type": "uint256"
            },
            {
              "internalType": "address",
              "name": "owner",
              "type": "address"
            },
            {
              "internalType": "bool",
              "name": "isDeleted",
              "type": "bool"
            },
            {
              "internalType": "address[]",
              "name": "sharedWith",
              "type": "address[]"
            }
          ],
          "internalType": "struct FileSharing.File[]",
          "name": "",
          "type": "tuple[]"
        }
      ],
      "stateMutability": "view",
      "type": "function"
    },
    {
      "inputs": [
        {
          "internalType": "address",
          "name": "user",
          "type": "address"
        }
      ],
      "name": "getUserFiles",
      "outputs": [
        {
          "components": [
            {
              "internalType": "string",
              "name": "fileName",
              "type": "string"
            },
            {
              "internalType": "string",
              "name": "fileHash",
              "type": "string"
            },
            {
              "internalType": "string",
              "name": "description",
              "type": "string"
            },
            {
              "internalType": "uint256",
              "name": "version",
              "type": "uint256"
            },
            {
              "internalType": "address",
              "name": "owner",
              "type": "address"
            },
            {
              "internalType": "bool",
              "name": "isDeleted",
              "type": "bool"
            },
            {
              "internalType": "address[]",
              "name": "sharedWith",
              "type": "address[]"
            }
          ],
          "internalType": "struct FileSharing.File[]",
          "name": "",
          "type": "tuple[]"
        }
      ],
      "stateMutability": "view",
      "type": "function"
    },
    {
      "inputs": [
        {
          "internalType": "address",
          "name": "user",
          "type": "address"
        }
      ],
      "name": "isAdmin",
      "outputs": [
        {
          "internalType": "bool",
          "name": "",
          "type": "bool"
        }
      ],
      "stateMutability": "view",
      "type": "function"
    },
    {
      "inputs": [
        {
          "internalType": "string",
          "name": "fileHash",
          "type": "string"
        },
        {
          "internalType": "address",
          "name": "user",
          "type": "address"
        }
      ],
      "name": "isFileSharedWith",
      "outputs": [
        {
          "internalType": "bool",
          "name": "",
          "type": "bool"
        }
      ],
      "stateMutability": "view",
      "type": "function"
    },
    {
      "inputs": [
        {
          "internalType": "address",
          "name": "",
          "type": "address"
        }
      ],
      "name": "isRegistered",
      "outputs": [
        {
          "internalType": "bool",
          "name": "",
          "type": "bool"
        }
      ],
      "stateMutability": "pure",
      "type": "function"
    },
    {
      "inputs": [
        {
          "internalType": "address",
          "name": "admin",
          "type": "address"
        }
      ],
      "name": "removeAdmin",
      "outputs": [],
      "stateMutability": "nonpayable",
      "type": "function"
    },
    {
      "inputs": [
        {
          "internalType": "string",
          "name": "fileHash",
          "type": "string"
        },
        {
          "internalType": "address",
          "name": "recipient",
          "type": "address"
        }
      ],
      "name": "shareFile",
      "outputs": [],
      "stateMutability": "nonpayable",
      "type": "function"
    },
    {
      "inputs": [
        {
          "internalType": "string",
          "name": "fileHash",
          "type": "string"
        },
        {
          "internalType": "string",
          "name": "fileName",
          "type": "string"
        },
        {
          "internalType": "string",
          "name": "description",
          "type": "string"
        }
      ],
      "name": "uploadFile",
      "outputs": [],
      "stateMutability": "nonpayable",
      "type": "function"
    }
  ],
  "bytecode": "0x60806040523480156200001157600080fd5b5060405162003b4638038062003b46833981810160405281019062000037919062000184565b6001600260003373ffffffffffffffffffffffffffffffffffffffff1673ffffffffffffffffffffffffffffffffffffffff16815260200190815260200160002060006101000a81548160ff02191690831515021790555080600360006101000a81548173ffffffffffffffffffffffffffffffffffffffff021916908373ffffffffffffffffffffffffffffffffffffffff1602179055503373ffffffffffffffffffffffffffffffffffffffff167f44d6d25963f097ad14f29f06854a01f575648a1ef82f30e562ccd3889717e33960405160405180910390a250620001b6565b600080fd5b600073ffffffffffffffffffffffffffffffffffffffff82169050919050565b60006200014c826200011f565b9050919050565b6200015e816200013f565b81146200016a57600080fd5b50565b6000815190506200017e8162000153565b92915050565b6000602082840312156200019d576200019c6200011a565b5b6000620001ad848285016200016d565b91505092915050565b61398080620001c66000396000f3fe608060405234801561001057600080fd5b50600436106100b45760003560e01c806392bb481a1161007157806392bb481a146101b1578063c3c5a547146101cd578063d5c37a0c146101fd578063e2842d7914610219578063ebceb82c14610237578063ff24b5d514610253576100b4565b80631785f53c146100b95780631d152422146100d55780631fc379221461010557806324d7806c14610135578063392101b1146101655780637048027514610195575b600080fd5b6100d360048036038101906100ce91906126f3565b610271565b005b6100ef60048036038101906100ea91906126f3565b610495565b6040516100fc9190612a15565b60405180910390f35b61011f600480360381019061011a91906126f3565b610d00565b60405161012c9190612a15565b60405180910390f35b61014f600480360381019061014a91906126f3565b6112b9565b60405161015c9190612a46565b60405180910390f35b61017f600480360381019061017a9190612b96565b61130f565b60405161018c9190612a46565b60405180910390f35b6101af60048036038101906101aa91906126f3565b61164f565b005b6101cb60048036038101906101c69190612bf2565b611806565b005b6101e760048036038101906101e291906126f3565b611a86565b6040516101f49190612a46565b60405180910390f35b61021760048036038101906102129190612cc5565b611a91565b005b610221611dc6565b60405161022e9190612d90565b60405180910390f35b610251600480360381019061024c9190612b96565b611eef565b005b61025b612428565b6040516102689190612a15565b60405180910390f35b600260003373ffffffffffffffffffffffffffffffffffffffff1673ffffffffffffffffffffffffffffffffffffffff16815260200190815260200160002060009054906101000a900460ff166102fd576040517f08c379a00000000000000000000000000000000000000000000000000000000081526004016102f490612e35565b60405180910390fd5b600260008273ffffffffffffffffffffffffffffffffffffffff1673ffffffffffffffffffffffffffffffffffffffff16815260200190815260200160002060009054906101000a900460ff16610389576040517f08c379a000000000000000000000000000000000000000000000000000000000815260040161038090612ea1565b60405180910390fd5b3373ffffffffffffffffffffffffffffffffffffffff168173ffffffffffffffffffffffffffffffffffffffff16036103f7576040517f08c379a00000000000000000000000000000000000000000000000000000000081526004016103ee90612f0d565b60405180910390fd5b6000600260008373ffffffffffffffffffffffffffffffffffffffff1673ffffffffffffffffffffffffffffffffffffffff16815260200190815260200160002060006101000a81548160ff0219169083151502179055508073ffffffffffffffffffffffffffffffffffffffff167fa3b62bc36326052d97ea62d63c3d60308ed4c3ea8ac079dd8499f1e9c4f80c0f60405160405180910390a250565b60606104a033611a86565b6104df576040517f08c379a00000000000000000000000000000000000000000000000000000000081526004016104d690612f79565b60405180910390fd5b6000805b6000803373ffffffffffffffffffffffffffffffffffffffff1673ffffffffffffffffffffffffffffffffffffffff1681526020019081526020016000208054905081101561071a5760005b6000803373ffffffffffffffffffffffffffffffffffffffff1673ffffffffffffffffffffffffffffffffffffffff168152602001908152602001600020828154811061057f5761057e612f99565b5b906000526020600020906006020160050180549050811015610706578473ffffffffffffffffffffffffffffffffffffffff166000803373ffffffffffffffffffffffffffffffffffffffff1673ffffffffffffffffffffffffffffffffffffffff168152602001908152602001600020838154811061060257610601612f99565b5b9060005260206000209060060201600501828154811061062557610624612f99565b5b9060005260206000200160009054906101000a900473ffffffffffffffffffffffffffffffffffffffff1673ffffffffffffffffffffffffffffffffffffffff161480156106df57506000803373ffffffffffffffffffffffffffffffffffffffff1673ffffffffffffffffffffffffffffffffffffffff16815260200190815260200160002082815481106106be576106bd612f99565b5b906000526020600020906006020160040160149054906101000a900460ff16155b156106f35782806106ef90612ff7565b9350505b80806106fe90612ff7565b91505061052f565b50808061071290612ff7565b9150506104e3565b5060008167ffffffffffffffff81111561073757610736612a6b565b5b60405190808252806020026020018201604052801561077057816020015b61075d61262c565b8152602001906001900390816107555790505b5090506000805b6000803373ffffffffffffffffffffffffffffffffffffffff1673ffffffffffffffffffffffffffffffffffffffff16815260200190815260200160002080549050811015610cf45760005b6000803373ffffffffffffffffffffffffffffffffffffffff1673ffffffffffffffffffffffffffffffffffffffff168152602001908152602001600020828154811061081357610812612f99565b5b906000526020600020906006020160050180549050811015610ce0578673ffffffffffffffffffffffffffffffffffffffff166000803373ffffffffffffffffffffffffffffffffffffffff1673ffffffffffffffffffffffffffffffffffffffff168152602001908152602001600020838154811061089657610895612f99565b5b906000526020600020906006020160050182815481106108b9576108b8612f99565b5b9060005260206000200160009054906101000a900473ffffffffffffffffffffffffffffffffffffffff1673ffffffffffffffffffffffffffffffffffffffff1614801561097357506000803373ffffffffffffffffffffffffffffffffffffffff1673ffffffffffffffffffffffffffffffffffffffff168152602001908152602001600020828154811061095257610951612f99565b5b906000526020600020906006020160040160149054906101000a900460ff16155b15610ccd576000803373ffffffffffffffffffffffffffffffffffffffff1673ffffffffffffffffffffffffffffffffffffffff16815260200190815260200160002082815481106109c8576109c7612f99565b5b90600052602060002090600602016040518060e00160405290816000820180546109f19061306e565b80601f0160208091040260200160405190810160405280929190818152602001828054610a1d9061306e565b8015610a6a5780601f10610a3f57610100808354040283529160200191610a6a565b820191906000526020600020905b815481529060010190602001808311610a4d57829003601f168201915b50505050508152602001600182018054610a839061306e565b80601f0160208091040260200160405190810160405280929190818152602001828054610aaf9061306e565b8015610afc5780601f10610ad157610100808354040283529160200191610afc565b820191906000526020600020905b815481529060010190602001808311610adf57829003601f168201915b50505050508152602001600282018054610b159061306e565b80601f0160208091040260200160405190810160405280929190818152602001828054610b419061306e565b8015610b8e5780601f10610b6357610100808354040283529160200191610b8e565b820191906000526020600020905b815481529060010190602001808311610b7157829003601f168201915b50505050508152602001600382015481526020016004820160009054906101000a900473ffffffffffffffffffffffffffffffffffffffff1673ffffffffffffffffffffffffffffffffffffffff1673ffffffffffffffffffffffffffffffffffffffff1681526020016004820160149054906101000a900460ff1615151515815260200160058201805480602002602001604051908101604052809291908181526020018280548015610c9757602002820191906000526020600020905b8160009054906101000a900473ffffffffffffffffffffffffffffffffffffffff1673ffffffffffffffffffffffffffffffffffffffff1681526020019060010190808311610c4d575b505050505081525050848481518110610cb357610cb2612f99565b5b60200260200101819052508280610cc990612ff7565b9350505b8080610cd890612ff7565b9150506107c3565b508080610cec90612ff7565b915050610777565b50819350505050919050565b6060610d0b33611a86565b610d4a576040517f08c379a0000000000000000000000000000000000000000000000000000000008152600401610d4190612f79565b60405180910390fd5b6000805b6000808573ffffffffffffffffffffffffffffffffffffffff1673ffffffffffffffffffffffffffffffffffffffff16815260200190815260200160002080549050811015610e2c576000808573ffffffffffffffffffffffffffffffffffffffff1673ffffffffffffffffffffffffffffffffffffffff1681526020019081526020016000208181548110610de757610de6612f99565b5b906000526020600020906006020160040160149054906101000a900460ff16610e19578180610e1590612ff7565b9250505b8080610e2490612ff7565b915050610d4e565b5060008167ffffffffffffffff811115610e4957610e48612a6b565b5b604051908082528060200260200182016040528015610e8257816020015b610e6f61262c565b815260200190600190039081610e675790505b5090506000805b6000808773ffffffffffffffffffffffffffffffffffffffff1673ffffffffffffffffffffffffffffffffffffffff168152602001908152602001600020805490508110156112ad576000808773ffffffffffffffffffffffffffffffffffffffff1673ffffffffffffffffffffffffffffffffffffffff1681526020019081526020016000208181548110610f2257610f21612f99565b5b906000526020600020906006020160040160149054906101000a900460ff1661129a576000808773ffffffffffffffffffffffffffffffffffffffff1673ffffffffffffffffffffffffffffffffffffffff1681526020019081526020016000208181548110610f9557610f94612f99565b5b90600052602060002090600602016040518060e0016040529081600082018054610fbe9061306e565b80601f0160208091040260200160405190810160405280929190818152602001828054610fea9061306e565b80156110375780601f1061100c57610100808354040283529160200191611037565b820191906000526020600020905b81548152906001019060200180831161101a57829003601f168201915b505050505081526020016001820180546110509061306e565b80601f016020809104026020016040519081016040528092919081815260200182805461107c9061306e565b80156110c95780601f1061109e576101008083540402835291602001916110c9565b820191906000526020600020905b8154815290600101906020018083116110ac57829003601f168201915b505050505081526020016002820180546110e29061306e565b80601f016020809104026020016040519081016040528092919081815260200182805461110e9061306e565b801561115b5780601f106111305761010080835404028352916020019161115b565b820191906000526020600020905b81548152906001019060200180831161113e57829003601f168201915b50505050508152602001600382015481526020016004820160009054906101000a900473ffffffffffffffffffffffffffffffffffffffff1673ffffffffffffffffffffffffffffffffffffffff1673ffffffffffffffffffffffffffffffffffffffff1681526020016004820160149054906101000a900460ff161515151581526020016005820180548060200260200160405190810160405280929190818152602001828054801561126457602002820191906000526020600020905b8160009054906101000a900473ffffffffffffffffffffffffffffffffffffffff1673ffffffffffffffffffffffffffffffffffffffff168152602001906001019080831161121a575b5050505050815250508383815181106112805761127f612f99565b5b6020026020010181905250818061129690612ff7565b9250505b80806112a590612ff7565b915050610e89565b50819350505050919050565b6000600260008373ffffffffffffffffffffffffffffffffffffffff1673ffffffffffffffffffffffffffffffffffffffff16815260200190815260200160002060009054906101000a900460ff169050919050565b600061131a33611a86565b611359576040517f08c379a000000000000000000000000000000000000000000000000000000000815260040161135090612f79565b60405180910390fd5b60005b6000803373ffffffffffffffffffffffffffffffffffffffff1673ffffffffffffffffffffffffffffffffffffffff1681526020019081526020016000208054905081101561164357836040516020016113b691906130db565b604051602081830303815290604052805190602001206000803373ffffffffffffffffffffffffffffffffffffffff1673ffffffffffffffffffffffffffffffffffffffff168152602001908152602001600020828154811061141c5761141b612f99565b5b906000526020600020906006020160010160405160200161143d919061318a565b604051602081830303815290604052805190602001201480156114cc57506000803373ffffffffffffffffffffffffffffffffffffffff1673ffffffffffffffffffffffffffffffffffffffff16815260200190815260200160002081815481106114ab576114aa612f99565b5b906000526020600020906006020160040160149054906101000a900460ff16155b156116305760005b6000803373ffffffffffffffffffffffffffffffffffffffff1673ffffffffffffffffffffffffffffffffffffffff168152602001908152602001600020828154811061152457611523612f99565b5b90600052602060002090600602016005018054905081101561162e578373ffffffffffffffffffffffffffffffffffffffff166000803373ffffffffffffffffffffffffffffffffffffffff1673ffffffffffffffffffffffffffffffffffffffff16815260200190815260200160002083815481106115a7576115a6612f99565b5b906000526020600020906006020160050182815481106115ca576115c9612f99565b5b9060005260206000200160009054906101000a900473ffffffffffffffffffffffffffffffffffffffff1673ffffffffffffffffffffffffffffffffffffffff160361161b57600192505050611649565b808061162690612ff7565b9150506114d4565b505b808061163b90612ff7565b91505061135c565b50600090505b92915050565b600260003373ffffffffffffffffffffffffffffffffffffffff1673ffffffffffffffffffffffffffffffffffffffff16815260200190815260200160002060009054906101000a900460ff166116db576040517f08c379a00000000000000000000000000000000000000000000000000000000081526004016116d290612e35565b60405180910390fd5b600260008273ffffffffffffffffffffffffffffffffffffffff1673ffffffffffffffffffffffffffffffffffffffff16815260200190815260200160002060009054906101000a900460ff1615611768576040517f08c379a000000000000000000000000000000000000000000000000000000000815260040161175f906131ed565b60405180910390fd5b6001600260008373ffffffffffffffffffffffffffffffffffffffff1673ffffffffffffffffffffffffffffffffffffffff16815260200190815260200160002060006101000a81548160ff0219169083151502179055508073ffffffffffffffffffffffffffffffffffffffff167f44d6d25963f097ad14f29f06854a01f575648a1ef82f30e562ccd3889717e33960405160405180910390a250565b61180f33611a86565b61184e576040517f08c379a000000000000000000000000000000000000000000000000000000000815260040161184590612f79565b60405180910390fd5b60018360405161185e91906130db565b908152602001604051809103902060009054906101000a900460ff16156118ba576040517f08c379a00000000000000000000000000000000000000000000000000000000081526004016118b190613259565b60405180910390fd5b60008060003373ffffffffffffffffffffffffffffffffffffffff1673ffffffffffffffffffffffffffffffffffffffff16815260200190815260200160002060018160018154018082558091505003906000526020600020906006020190508281600001908161192b9190613410565b508381600101908161193d9190613410565b508181600201908161194f9190613410565b506000803373ffffffffffffffffffffffffffffffffffffffff1673ffffffffffffffffffffffffffffffffffffffff168152602001908152602001600020805490508160030181905550338160040160006101000a81548173ffffffffffffffffffffffffffffffffffffffff021916908373ffffffffffffffffffffffffffffffffffffffff16021790555060008160040160146101000a81548160ff02191690831515021790555060018085604051611a0b91906130db565b908152602001604051809103902060006101000a81548160ff0219169083151502179055503373ffffffffffffffffffffffffffffffffffffffff167f2f82310531f67ec4eae39b4f0d4e2ea9a5e6da4bb8f084adb414ec441b761c5d8585604051611a7892919061351b565b60405180910390a250505050565b600060019050919050565b611a9a33611a86565b611ad9576040517f08c379a0000000000000000000000000000000000000000000000000000000008152600401611ad090612f79565b60405180910390fd5b60005b6000803373ffffffffffffffffffffffffffffffffffffffff1673ffffffffffffffffffffffffffffffffffffffff16815260200190815260200160002080549050811015611d865782604051602001611b3691906130db565b604051602081830303815290604052805190602001206000803373ffffffffffffffffffffffffffffffffffffffff1673ffffffffffffffffffffffffffffffffffffffff1681526020019081526020016000208281548110611b9c57611b9b612f99565b5b9060005260206000209060060201600001604051602001611bbd919061318a565b60405160208183030381529060405280519060200120148015611c405750816000803373ffffffffffffffffffffffffffffffffffffffff1673ffffffffffffffffffffffffffffffffffffffff1681526020019081526020016000208281548110611c2c57611c2b612f99565b5b906000526020600020906006020160030154145b15611d735760016000803373ffffffffffffffffffffffffffffffffffffffff1673ffffffffffffffffffffffffffffffffffffffff1681526020019081526020016000208281548110611c9757611c96612f99565b5b906000526020600020906006020160040160146101000a81548160ff0219169083151502179055503373ffffffffffffffffffffffffffffffffffffffff167f14a51c77a00d5c4c3ccc7a4df74f169088c4d4d04859d176729645e53c7b895c6000803373ffffffffffffffffffffffffffffffffffffffff1673ffffffffffffffffffffffffffffffffffffffff1681526020019081526020016000208381548110611d4757611d46612f99565b5b9060005260206000209060060201600101604051611d6591906135d6565b60405180910390a250611dc2565b8080611d7e90612ff7565b915050611adc565b506040517f08c379a0000000000000000000000000000000000000000000000000000000008152600401611db990613644565b60405180910390fd5b5050565b6060600260003373ffffffffffffffffffffffffffffffffffffffff1673ffffffffffffffffffffffffffffffffffffffff16815260200190815260200160002060009054906101000a900460ff16611e54576040517f08c379a0000000000000000000000000000000000000000000000000000000008152600401611e4b90612e35565b60405180910390fd5b600360009054906101000a900473ffffffffffffffffffffffffffffffffffffffff1673ffffffffffffffffffffffffffffffffffffffff1663e2842d796040518163ffffffff1660e01b8152600401600060405180830381865afa158015611ec1573d6000803e3d6000fd5b505050506040513d6000823e3d601f19601f82011682018060405250810190611eea9190613741565b905090565b611ef833611a86565b611f37576040517f08c379a0000000000000000000000000000000000000000000000000000000008152600401611f2e90612f79565b60405180910390fd5b600182604051611f4791906130db565b908152602001604051809103902060009054906101000a900460ff16611fa2576040517f08c379a0000000000000000000000000000000000000000000000000000000008152600401611f99906137d6565b60405180910390fd5b60005b6000803373ffffffffffffffffffffffffffffffffffffffff1673ffffffffffffffffffffffffffffffffffffffff168152602001908152602001600020805490508110156123e85782604051602001611fff91906130db565b604051602081830303815290604052805190602001206000803373ffffffffffffffffffffffffffffffffffffffff1673ffffffffffffffffffffffffffffffffffffffff168152602001908152602001600020828154811061206557612064612f99565b5b9060005260206000209060060201600101604051602001612086919061318a565b6040516020818303038152906040528051906020012014801561211557506000803373ffffffffffffffffffffffffffffffffffffffff1673ffffffffffffffffffffffffffffffffffffffff16815260200190815260200160002081815481106120f4576120f3612f99565b5b906000526020600020906006020160040160149054906101000a900460ff16155b156123d55760005b6000803373ffffffffffffffffffffffffffffffffffffffff1673ffffffffffffffffffffffffffffffffffffffff168152602001908152602001600020828154811061216d5761216c612f99565b5b9060005260206000209060060201600501805490508110156122a7578273ffffffffffffffffffffffffffffffffffffffff166000803373ffffffffffffffffffffffffffffffffffffffff1673ffffffffffffffffffffffffffffffffffffffff16815260200190815260200160002083815481106121f0576121ef612f99565b5b9060005260206000209060060201600501828154811061221357612212612f99565b5b9060005260206000200160009054906101000a900473ffffffffffffffffffffffffffffffffffffffff1673ffffffffffffffffffffffffffffffffffffffff1603612294576040517f08c379a000000000000000000000000000000000000000000000000000000000815260040161228b90613868565b60405180910390fd5b808061229f90612ff7565b91505061211d565b506000803373ffffffffffffffffffffffffffffffffffffffff1673ffffffffffffffffffffffffffffffffffffffff16815260200190815260200160002081815481106122f8576122f7612f99565b5b9060005260206000209060060201600501829080600181540180825580915050600190039060005260206000200160009091909190916101000a81548173ffffffffffffffffffffffffffffffffffffffff021916908373ffffffffffffffffffffffffffffffffffffffff1602179055508173ffffffffffffffffffffffffffffffffffffffff163373ffffffffffffffffffffffffffffffffffffffff167fde36542b2cce57cd64b09c2d42bb777fd32de9f0fe0c30c4f7b5516d87632a65856040516123c79190613888565b60405180910390a350612424565b80806123e090612ff7565b915050611fa5565b506040517f08c379a000000000000000000000000000000000000000000000000000000000815260040161241b906138f6565b60405180910390fd5b5050565b6060600260003373ffffffffffffffffffffffffffffffffffffffff1673ffffffffffffffffffffffffffffffffffffffff16815260200190815260200160002060009054906101000a900460ff166124b6576040517f08c379a00000000000000000000000000000000000000000000000000000000081526004016124ad90612e35565b60405180910390fd5b60006124c0611dc6565b90506000805b82518110156125195760006124f48483815181106124e7576124e6612f99565b5b6020026020010151610d00565b90508051836125039190613916565b925050808061251190612ff7565b9150506124c6565b5060008167ffffffffffffffff81111561253657612535612a6b565b5b60405190808252806020026020018201604052801561256f57816020015b61255c61262c565b8152602001906001900390816125545790505b5090506000805b84518110156126215760006125a486838151811061259757612596612f99565b5b6020026020010151610d00565b905060005b815181101561260c578181815181106125c5576125c4612f99565b5b60200260200101518585815181106125e0576125df612f99565b5b602002602001018190525083806125f690612ff7565b945050808061260490612ff7565b9150506125a9565b5050808061261990612ff7565b915050612576565b508194505050505090565b6040518060e0016040528060608152602001606081526020016060815260200160008152602001600073ffffffffffffffffffffffffffffffffffffffff168152602001600015158152602001606081525090565b6000604051905090565b600080fd5b600080fd5b600073ffffffffffffffffffffffffffffffffffffffff82169050919050565b60006126c082612695565b9050919050565b6126d0816126b5565b81146126db57600080fd5b50565b6000813590506126ed816126c7565b92915050565b6000602082840312156127095761270861268b565b5b6000612717848285016126de565b91505092915050565b600081519050919050565b600082825260208201905092915050565b6000819050602082019050919050565b600081519050919050565b600082825260208201905092915050565b60005b8381101561278657808201518184015260208101905061276b565b60008484015250505050565b6000601f19601f8301169050919050565b60006127ae8261274c565b6127b88185612757565b93506127c8818560208601612768565b6127d181612792565b840191505092915050565b6000819050919050565b6127ef816127dc565b82525050565b6127fe816126b5565b82525050565b60008115159050919050565b61281981612804565b82525050565b600081519050919050565b600082825260208201905092915050565b6000819050602082019050919050565b600061285783836127f5565b60208301905092915050565b6000602082019050919050565b600061287b8261281f565b612885818561282a565b93506128908361283b565b8060005b838110156128c15781516128a8888261284b565b97506128b383612863565b925050600181019050612894565b5085935050505092915050565b600060e08301600083015184820360008601526128eb82826127a3565b9150506020830151848203602086015261290582826127a3565b9150506040830151848203604086015261291f82826127a3565b915050606083015161293460608601826127e6565b50608083015161294760808601826127f5565b5060a083015161295a60a0860182612810565b5060c083015184820360c08601526129728282612870565b9150508091505092915050565b600061298b83836128ce565b905092915050565b6000602082019050919050565b60006129ab82612720565b6129b5818561272b565b9350836020820285016129c78561273c565b8060005b85811015612a0357848403895281516129e4858261297f565b94506129ef83612993565b925060208a019950506001810190506129cb565b50829750879550505050505092915050565b60006020820190508181036000830152612a2f81846129a0565b905092915050565b612a4081612804565b82525050565b6000602082019050612a5b6000830184612a37565b92915050565b600080fd5b600080fd5b7f4e487b7100000000000000000000000000000000000000000000000000000000600052604160045260246000fd5b612aa382612792565b810181811067ffffffffffffffff82111715612ac257612ac1612a6b565b5b80604052505050565b6000612ad5612681565b9050612ae18282612a9a565b919050565b600067ffffffffffffffff821115612b0157612b00612a6b565b5b612b0a82612792565b9050602081019050919050565b82818337600083830152505050565b6000612b39612b3484612ae6565b612acb565b905082815260208101848484011115612b5557612b54612a66565b5b612b60848285612b17565b509392505050565b600082601f830112612b7d57612b7c612a61565b5b8135612b8d848260208601612b26565b91505092915050565b60008060408385031215612bad57612bac61268b565b5b600083013567ffffffffffffffff811115612bcb57612bca612690565b5b612bd785828601612b68565b9250506020612be8858286016126de565b9150509250929050565b600080600060608486031215612c0b57612c0a61268b565b5b600084013567ffffffffffffffff811115612c2957612c28612690565b5b612c3586828701612b68565b935050602084013567ffffffffffffffff811115612c5657612c55612690565b5b612c6286828701612b68565b925050604084013567ffffffffffffffff811115612c8357612c82612690565b5b612c8f86828701612b68565b9150509250925092565b612ca2816127dc565b8114612cad57600080fd5b50565b600081359050612cbf81612c99565b92915050565b60008060408385031215612cdc57612cdb61268b565b5b600083013567ffffffffffffffff811115612cfa57612cf9612690565b5b612d0685828601612b68565b9250506020612d1785828601612cb0565b9150509250929050565b600082825260208201905092915050565b6000612d3d8261281f565b612d478185612d21565b9350612d528361283b565b8060005b83811015612d83578151612d6a888261284b565b9750612d7583612863565b925050600181019050612d56565b5085935050505092915050565b60006020820190508181036000830152612daa8184612d32565b905092915050565b600082825260208201905092915050565b7f4f6e6c792061646d696e2063616e20706572666f726d2074686973206163746960008201527f6f6e000000000000000000000000000000000000000000000000000000000000602082015250565b6000612e1f602283612db2565b9150612e2a82612dc3565b604082019050919050565b60006020820190508181036000830152612e4e81612e12565b9050919050565b7f41646472657373206973206e6f7420616e2061646d696e000000000000000000600082015250565b6000612e8b601783612db2565b9150612e9682612e55565b602082019050919050565b60006020820190508181036000830152612eba81612e7e565b9050919050565b7f43616e6e6f742072656d6f76652073656c660000000000000000000000000000600082015250565b6000612ef7601283612db2565b9150612f0282612ec1565b602082019050919050565b60006020820190508181036000830152612f2681612eea565b9050919050565b7f55736572206e6f74207265676973746572656400000000000000000000000000600082015250565b6000612f63601383612db2565b9150612f6e82612f2d565b602082019050919050565b60006020820190508181036000830152612f9281612f56565b9050919050565b7f4e487b7100000000000000000000000000000000000000000000000000000000600052603260045260246000fd5b7f4e487b7100000000000000000000000000000000000000000000000000000000600052601160045260246000fd5b6000613002826127dc565b91507fffffffffffffffffffffffffffffffffffffffffffffffffffffffffffffffff820361303457613033612fc8565b5b600182019050919050565b7f4e487b7100000000000000000000000000000000000000000000000000000000600052602260045260246000fd5b6000600282049050600182168061308657607f821691505b6020821081036130995761309861303f565b5b50919050565b600081905092915050565b60006130b58261274c565b6130bf818561309f565b93506130cf818560208601612768565b80840191505092915050565b60006130e782846130aa565b915081905092915050565b60008190508160005260206000209050919050565b600081546131148161306e565b61311e818661309f565b94506001821660008114613139576001811461314e57613181565b60ff1983168652811515820286019350613181565b613157856130f2565b60005b838110156131795781548189015260018201915060208101905061315a565b838801955050505b50505092915050565b60006131968284613107565b915081905092915050565b7f4164647265737320697320616c726561647920616e2061646d696e0000000000600082015250565b60006131d7601b83612db2565b91506131e2826131a1565b602082019050919050565b60006020820190508181036000830152613206816131ca565b9050919050565b7f46696c6520616c72656164792065786973747300000000000000000000000000600082015250565b6000613243601383612db2565b915061324e8261320d565b602082019050919050565b6000602082019050818103600083015261327281613236565b9050919050565b60006020601f8301049050919050565b600082821b905092915050565b6000600883026132c67fffffffffffffffffffffffffffffffffffffffffffffffffffffffffffffffff82613289565b6132d08683613289565b95508019841693508086168417925050509392505050565b6000819050919050565b600061330d613308613303846127dc565b6132e8565b6127dc565b9050919050565b6000819050919050565b613327836132f2565b61333b61333382613314565b848454613296565b825550505050565b600090565b613350613343565b61335b81848461331e565b505050565b5b8181101561337f57613374600082613348565b600181019050613361565b5050565b601f8211156133c457613395816130f2565b61339e84613279565b810160208510156133ad578190505b6133c16133b985613279565b830182613360565b50505b505050565b600082821c905092915050565b60006133e7600019846008026133c9565b1980831691505092915050565b600061340083836133d6565b9150826002028217905092915050565b6134198261274c565b67ffffffffffffffff81111561343257613431612a6b565b5b61343c825461306e565b613447828285613383565b600060209050601f83116001811461347a5760008415613468578287015190505b61347285826133f4565b8655506134da565b601f198416613488866130f2565b60005b828110156134b05784890151825560018201915060208501945060208101905061348b565b868310156134cd57848901516134c9601f8916826133d6565b8355505b6001600288020188555050505b505050505050565b60006134ed8261274c565b6134f78185612db2565b9350613507818560208601612768565b61351081612792565b840191505092915050565b6000604082019050818103600083015261353581856134e2565b9050818103602083015261354981846134e2565b90509392505050565b6000815461355f8161306e565b6135698186612db2565b94506001821660008114613584576001811461359a576135cd565b60ff1983168652811515602002860193506135cd565b6135a3856130f2565b60005b838110156135c5578154818901526001820191506020810190506135a6565b808801955050505b50505092915050565b600060208201905081810360008301526135f08184613552565b905092915050565b7f46696c65206e6f7420666f756e64000000000000000000000000000000000000600082015250565b600061362e600e83612db2565b9150613639826135f8565b602082019050919050565b6000602082019050818103600083015261365d81613621565b9050919050565b600067ffffffffffffffff82111561367f5761367e612a6b565b5b602082029050602081019050919050565b600080fd5b6000815190506136a4816126c7565b92915050565b60006136bd6136b884613664565b612acb565b905080838252602082019050602084028301858111156136e0576136df613690565b5b835b8181101561370957806136f58882613695565b8452602084019350506020810190506136e2565b5050509392505050565b600082601f83011261372857613727612a61565b5b81516137388482602086016136aa565b91505092915050565b6000602082840312156137575761375661268b565b5b600082015167ffffffffffffffff81111561377557613774612690565b5b61378184828501613713565b91505092915050565b7f46696c6520646f6573206e6f7420657869737400000000000000000000000000600082015250565b60006137c0601383612db2565b91506137cb8261378a565b602082019050919050565b600060208201905081810360008301526137ef816137b3565b9050919050565b7f46696c6520616c7265616479207368617265642077697468207468697320616460008201527f6472657373000000000000000000000000000000000000000000000000000000602082015250565b6000613852602583612db2565b915061385d826137f6565b604082019050919050565b6000602082019050818103600083015261388181613845565b9050919050565b600060208201905081810360008301526138a281846134e2565b905092915050565b7f46696c65206e6f7420666f756e64206f722064656c6574656400000000000000600082015250565b60006138e0601983612db2565b91506138eb826138aa565b602082019050919050565b6000602082019050818103600083015261390f816138d3565b9050919050565b6000613921826127dc565b915061392c836127dc565b925082820190508082111561394457613943612fc8565b5b9291505056fea2646970667358221220dd9e2f5ae69bb03fef0cffc26337505795306494f823e300257e621304d2fe2564736f6c63430008140033",
  "linkReferences": {},
  "deployedLinkReferences": {}
}