{
  "_format": "hh-sol-artifact-1",
  "contractName": "UserManagement",
  "sourceName": "contracts/UserManagement.sol",
  "abi": [
    {
      "anonymous": false,
      "inputs": [
        {
          "indexed": true,
          "internalType": "address",
          "name": "user",
          "type": "address"
        }
      ],
      "name": "UserDeleted",
      "type": "event"
    },
    {
      "anonymous": false,
      "inputs": [
        {
          "indexed": true,
          "internalType": "address",
          "name": "user",
          "type": "address"
        }
      ],
      "name": "UserRegistered",
      "type": "event"
    },
    {
      "inputs": [
        {
          "internalType": "address",
          "name": "user",
          "type": "address"
        }
      ],
      "name": "deleteUser",
      "outputs": [],
      "stateMutability": "nonpayable",
      "type": "function"
    },
    {
      "inputs": [],
      "name": "getAllUsers",
      "outputs": [
        {
          "internalType": "address[]",
          "name": "",
          "type": "address[]"
        }
      ],
      "stateMutability": "view",
      "type": "function"
    },
    {
      "inputs": [
        {
          "internalType": "address",
          "name": "user",
          "type": "address"
        }
      ],
      "name": "isRegistered",
      "outputs": [
        {
          "internalType": "bool",
          "name": "",
          "type": "bool"
        }
      ],
      "stateMutability": "view",
      "type": "function"
    },
    {
      "inputs": [],
      "name": "registerUser",
      "outputs": [],
      "stateMutability": "nonpayable",
      "type": "function"
    }
  ],
  "bytecode": "0x608060405234801561001057600080fd5b50610b40806100206000396000f3fe608060405234801561001057600080fd5b506004361061004c5760003560e01c80634d3820eb146100515780635c60f2261461005b578063c3c5a54714610077578063e2842d79146100a7575b600080fd5b6100596100c5565b005b6100756004803603810190610070919061075f565b610250565b005b610091600480360381019061008c919061075f565b61058e565b60405161009e91906107a7565b60405180910390f35b6100af6105e3565b6040516100bc9190610880565b60405180910390f35b6000803373ffffffffffffffffffffffffffffffffffffffff1673ffffffffffffffffffffffffffffffffffffffff16815260200190815260200160002060009054906101000a900460ff1615610151576040517f08c379a0000000000000000000000000000000000000000000000000000000008152600401610148906108ff565b60405180910390fd5b60016000803373ffffffffffffffffffffffffffffffffffffffff1673ffffffffffffffffffffffffffffffffffffffff16815260200190815260200160002060006101000a81548160ff0219169083151502179055506001339080600181540180825580915050600190039060005260206000200160009091909190916101000a81548173ffffffffffffffffffffffffffffffffffffffff021916908373ffffffffffffffffffffffffffffffffffffffff1602179055503373ffffffffffffffffffffffffffffffffffffffff167f54db7a5cb4735e1aac1f53db512d3390390bb6637bd30ad4bf9fc98667d9b9b960405160405180910390a2565b6000803373ffffffffffffffffffffffffffffffffffffffff1673ffffffffffffffffffffffffffffffffffffffff16815260200190815260200160002060009054906101000a900460ff166102db576040517f08c379a00000000000000000000000000000000000000000000000000000000081526004016102d29061096b565b60405180910390fd5b6000808273ffffffffffffffffffffffffffffffffffffffff1673ffffffffffffffffffffffffffffffffffffffff16815260200190815260200160002060009054906101000a900460ff16610366576040517f08c379a000000000000000000000000000000000000000000000000000000000815260040161035d906109d7565b60405180910390fd5b60008060008373ffffffffffffffffffffffffffffffffffffffff1673ffffffffffffffffffffffffffffffffffffffff16815260200190815260200160002060006101000a81548160ff02191690831515021790555060005b600180549050811015610547578173ffffffffffffffffffffffffffffffffffffffff16600182815481106103f8576103f76109f7565b5b9060005260206000200160009054906101000a900473ffffffffffffffffffffffffffffffffffffffff1673ffffffffffffffffffffffffffffffffffffffff16036105345760018080805490506104509190610a5f565b81548110610461576104606109f7565b5b9060005260206000200160009054906101000a900473ffffffffffffffffffffffffffffffffffffffff16600182815481106104a05761049f6109f7565b5b9060005260206000200160006101000a81548173ffffffffffffffffffffffffffffffffffffffff021916908373ffffffffffffffffffffffffffffffffffffffff16021790555060018054806104fa576104f9610a93565b5b6001900381819060005260206000200160006101000a81549073ffffffffffffffffffffffffffffffffffffffff02191690559055610547565b808061053f90610ac2565b9150506103c0565b508073ffffffffffffffffffffffffffffffffffffffff167f4bc56f1321288dfb5b416cb3a7fd188723979f9e866c91d88eccf7fca039d03960405160405180910390a250565b60008060008373ffffffffffffffffffffffffffffffffffffffff1673ffffffffffffffffffffffffffffffffffffffff16815260200190815260200160002060009054906101000a900460ff169050919050565b60606000803373ffffffffffffffffffffffffffffffffffffffff1673ffffffffffffffffffffffffffffffffffffffff16815260200190815260200160002060009054906101000a900460ff16610670576040517f08c379a00000000000000000000000000000000000000000000000000000000081526004016106679061096b565b60405180910390fd5b60018054806020026020016040519081016040528092919081815260200182805480156106f257602002820191906000526020600020905b8160009054906101000a900473ffffffffffffffffffffffffffffffffffffffff1673ffffffffffffffffffffffffffffffffffffffff16815260200190600101908083116106a8575b5050505050905090565b600080fd5b600073ffffffffffffffffffffffffffffffffffffffff82169050919050565b600061072c82610701565b9050919050565b61073c81610721565b811461074757600080fd5b50565b60008135905061075981610733565b92915050565b600060208284031215610775576107746106fc565b5b60006107838482850161074a565b91505092915050565b60008115159050919050565b6107a18161078c565b82525050565b60006020820190506107bc6000830184610798565b92915050565b600081519050919050565b600082825260208201905092915050565b6000819050602082019050919050565b6107f781610721565b82525050565b600061080983836107ee565b60208301905092915050565b6000602082019050919050565b600061082d826107c2565b61083781856107cd565b9350610842836107de565b8060005b8381101561087357815161085a88826107fd565b975061086583610815565b925050600181019050610846565b5085935050505092915050565b6000602082019050818103600083015261089a8184610822565b905092915050565b600082825260208201905092915050565b7f5573657220616c72656164792072656769737465726564000000000000000000600082015250565b60006108e96017836108a2565b91506108f4826108b3565b602082019050919050565b60006020820190508181036000830152610918816108dc565b9050919050565b7f55736572206e6f74207265676973746572656400000000000000000000000000600082015250565b60006109556013836108a2565b91506109608261091f565b602082019050919050565b6000602082019050818103600083015261098481610948565b9050919050565b7f5573657220646f6573206e6f7420657869737400000000000000000000000000600082015250565b60006109c16013836108a2565b91506109cc8261098b565b602082019050919050565b600060208201905081810360008301526109f0816109b4565b9050919050565b7f4e487b7100000000000000000000000000000000000000000000000000000000600052603260045260246000fd5b6000819050919050565b7f4e487b7100000000000000000000000000000000000000000000000000000000600052601160045260246000fd5b6000610a6a82610a26565b9150610a7583610a26565b9250828203905081811115610a8d57610a8c610a30565b5b92915050565b7f4e487b7100000000000000000000000000000000000000000000000000000000600052603160045260246000fd5b6000610acd82610a26565b91507fffffffffffffffffffffffffffffffffffffffffffffffffffffffffffffffff8203610aff57610afe610a30565b5b60018201905091905056fea2646970667358221220c80cf573e803682a7bc6177691576a86d70930474b4c0abcb699580db7711ec664736f6c63430008140033",
  "linkReferences": {},
  "deployedLinkReferences": {}
}